{"abi":[{"type":"constructor","inputs":[{"name":"_owner","type":"address","internalType":"address"}],"stateMutability":"nonpayable"},{"type":"function","name":"BACON","inputs":[],"outputs":[{"name":"","type":"uint256","internalType":"uint256"}],"stateMutability":"view"},{"type":"function","name":"CHEESE","inputs":[],"outputs":[{"name":"","type":"uint256","internalType":"uint256"}],"stateMutability":"view"},{"type":"function","name":"EGG","inputs":[],"outputs":[{"name":"","type":"uint256","internalType":"uint256"}],"stateMutability":"view"},{"type":"function","name":"PRICE_PER_INGREDIENT","inputs":[],"outputs":[{"name":"","type":"uint256","internalType":"uint256"}],"stateMutability":"view"},{"type":"function","name":"addIngredient","inputs":[{"name":"name","type":"string","internalType":"string"}],"outputs":[{"name":"","type":"uint256","internalType":"uint256"}],"stateMutability":"nonpayable"},{"type":"function","name":"balanceOf","inputs":[{"name":"account","type":"address","internalType":"address"},{"name":"id","type":"uint256","internalType":"uint256"}],"outputs":[{"name":"","type":"uint256","internalType":"uint256"}],"stateMutability":"view"},{"type":"function","name":"balanceOfBatch","inputs":[{"name":"accounts","type":"address[]","internalType":"address[]"},{"name":"ids","type":"uint256[]","internalType":"uint256[]"}],"outputs":[{"name":"","type":"uint256[]","internalType":"uint256[]"}],"stateMutability":"view"},{"type":"function","name":"burn","inputs":[{"name":"from","type":"address","internalType":"address"},{"name":"ids","type":"uint256[]","internalType":"uint256[]"},{"name":"amounts","type":"uint256[]","internalType":"uint256[]"}],"outputs":[],"stateMutability":"nonpayable"},{"type":"function","name":"buyBatch","inputs":[{"name":"ids","type":"uint256[]","internalType":"uint256[]"},{"name":"amounts","type":"uint256[]","internalType":"uint256[]"}],"outputs":[],"stateMutability":"nonpayable"},{"type":"function","name":"dishNFT","inputs":[],"outputs":[{"name":"","type":"address","internalType":"address"}],"stateMutability":"view"},{"type":"function","name":"ingredientExists","inputs":[{"name":"","type":"uint256","internalType":"uint256"}],"outputs":[{"name":"","type":"bool","internalType":"bool"}],"stateMutability":"view"},{"type":"function","name":"ingredientExistsById","inputs":[{"name":"id","type":"uint256","internalType":"uint256"}],"outputs":[{"name":"","type":"bool","internalType":"bool"}],"stateMutability":"view"},{"type":"function","name":"isApprovedForAll","inputs":[{"name":"account","type":"address","internalType":"address"},{"name":"operator","type":"address","internalType":"address"}],"outputs":[{"name":"","type":"bool","internalType":"bool"}],"stateMutability":"view"},{"type":"function","name":"kitchenToken","inputs":[],"outputs":[{"name":"","type":"address","internalType":"contract IERC20"}],"stateMutability":"view"},{"type":"function","name":"nextIngredientId","inputs":[],"outputs":[{"name":"","type":"uint256","internalType":"uint256"}],"stateMutability":"view"},{"type":"function","name":"owner","inputs":[],"outputs":[{"name":"","type":"address","internalType":"address"}],"stateMutability":"view"},{"type":"function","name":"renounceOwnership","inputs":[],"outputs":[],"stateMutability":"nonpayable"},{"type":"function","name":"safeBatchTransferFrom","inputs":[{"name":"from","type":"address","internalType":"address"},{"name":"to","type":"address","internalType":"address"},{"name":"ids","type":"uint256[]","internalType":"uint256[]"},{"name":"values","type":"uint256[]","internalType":"uint256[]"},{"name":"data","type":"bytes","internalType":"bytes"}],"outputs":[],"stateMutability":"nonpayable"},{"type":"function","name":"safeTransferFrom","inputs":[{"name":"from","type":"address","internalType":"address"},{"name":"to","type":"address","internalType":"address"},{"name":"id","type":"uint256","internalType":"uint256"},{"name":"value","type":"uint256","internalType":"uint256"},{"name":"data","type":"bytes","internalType":"bytes"}],"outputs":[],"stateMutability":"nonpayable"},{"type":"function","name":"setApprovalForAll","inputs":[{"name":"operator","type":"address","internalType":"address"},{"name":"approved","type":"bool","internalType":"bool"}],"outputs":[],"stateMutability":"nonpayable"},{"type":"function","name":"setDishNFT","inputs":[{"name":"_dishNFT","type":"address","internalType":"address"}],"outputs":[],"stateMutability":"nonpayable"},{"type":"function","name":"setKitchenToken","inputs":[{"name":"_kitchenToken","type":"address","internalType":"address"}],"outputs":[],"stateMutability":"nonpayable"},{"type":"function","name":"supportsInterface","inputs":[{"name":"interfaceId","type":"bytes4","internalType":"bytes4"}],"outputs":[{"name":"","type":"bool","internalType":"bool"}],"stateMutability":"view"},{"type":"function","name":"transferOwnership","inputs":[{"name":"newOwner","type":"address","internalType":"address"}],"outputs":[],"stateMutability":"nonpayable"},{"type":"function","name":"uri","inputs":[{"name":"","type":"uint256","internalType":"uint256"}],"outputs":[{"name":"","type":"string","internalType":"string"}],"stateMutability":"view"},{"type":"event","name":"ApprovalForAll","inputs":[{"name":"account","type":"address","indexed":true,"internalType":"address"},{"name":"operator","type":"address","indexed":true,"internalType":"address"},{"name":"approved","type":"bool","indexed":false,"internalType":"bool"}],"anonymous":false},{"type":"event","name":"IngredientsBurned","inputs":[{"name":"from","type":"address","indexed":true,"internalType":"address"},{"name":"ids","type":"uint256[]","indexed":false,"internalType":"uint256[]"},{"name":"amounts","type":"uint256[]","indexed":false,"internalType":"uint256[]"}],"anonymous":false},{"type":"event","name":"IngredientsPurchased","inputs":[{"name":"buyer","type":"address","indexed":true,"internalType":"address"},{"name":"ids","type":"uint256[]","indexed":false,"internalType":"uint256[]"},{"name":"amounts","type":"uint256[]","indexed":false,"internalType":"uint256[]"}],"anonymous":false},{"type":"event","name":"NewIngredientAdded","inputs":[{"name":"id","type":"uint256","indexed":true,"internalType":"uint256"},{"name":"name","type":"string","indexed":false,"internalType":"string"}],"anonymous":false},{"type":"event","name":"OwnershipTransferred","inputs":[{"name":"previousOwner","type":"address","indexed":true,"internalType":"address"},{"name":"newOwner","type":"address","indexed":true,"internalType":"address"}],"anonymous":false},{"type":"event","name":"TransferBatch","inputs":[{"name":"operator","type":"address","indexed":true,"internalType":"address"},{"name":"from","type":"address","indexed":true,"internalType":"address"},{"name":"to","type":"address","indexed":true,"internalType":"address"},{"name":"ids","type":"uint256[]","indexed":false,"internalType":"uint256[]"},{"name":"values","type":"uint256[]","indexed":false,"internalType":"uint256[]"}],"anonymous":false},{"type":"event","name":"TransferSingle","inputs":[{"name":"operator","type":"address","indexed":true,"internalType":"address"},{"name":"from","type":"address","indexed":true,"internalType":"address"},{"name":"to","type":"address","indexed":true,"internalType":"address"},{"name":"id","type":"uint256","indexed":false,"internalType":"uint256"},{"name":"value","type":"uint256","indexed":false,"internalType":"uint256"}],"anonymous":false},{"type":"event","name":"URI","inputs":[{"name":"value","type":"string","indexed":false,"internalType":"string"},{"name":"id","type":"uint256","indexed":true,"internalType":"uint256"}],"anonymous":false},{"type":"error","name":"ERC1155InsufficientBalance","inputs":[{"name":"sender","type":"address","internalType":"address"},{"name":"balance","type":"uint256","internalType":"uint256"},{"name":"needed","type":"uint256","internalType":"uint256"},{"name":"tokenId","type":"uint256","internalType":"uint256"}]},{"type":"error","name":"ERC1155InvalidApprover","inputs":[{"name":"approver","type":"address","internalType":"address"}]},{"type":"error","name":"ERC1155InvalidArrayLength","inputs":[{"name":"idsLength","type":"uint256","internalType":"uint256"},{"name":"valuesLength","type":"uint256","internalType":"uint256"}]},{"type":"error","name":"ERC1155InvalidOperator","inputs":[{"name":"operator","type":"address","internalType":"address"}]},{"type":"error","name":"ERC1155InvalidReceiver","inputs":[{"name":"receiver","type":"address","internalType":"address"}]},{"type":"error","name":"ERC1155InvalidSender","inputs":[{"name":"sender","type":"address","internalType":"address"}]},{"type":"error","name":"ERC1155MissingApprovalForAll","inputs":[{"name":"operator","type":"address","internalType":"address"},{"name":"owner","type":"address","internalType":"address"}]},{"type":"error","name":"IngredientNotExists","inputs":[]},{"type":"error","name":"InsufficientTokens","inputs":[]},{"type":"error","name":"InvalidArrayLength","inputs":[]},{"type":"error","name":"OnlyDishContract","inputs":[]},{"type":"error","name":"OwnableInvalidOwner","inputs":[{"name":"owner","type":"address","internalType":"address"}]},{"type":"error","name":"OwnableUnauthorizedAccount","inputs":[{"name":"account","type":"address","internalType":"address"}]}],"bytecode":{"object":"0x60806040526004600655348015610014575f5ffd5b5060405161363138038061363183398181016040528101906100369190610298565b806040518060600160405280602881526020016136096028913961005f8161016460201b60201c565b505f73ffffffffffffffffffffffffffffffffffffffff168173ffffffffffffffffffffffffffffffffffffffff16036100d0575f6040517f1e4fbdf70000000000000000000000000000000000000000000000000000000081526004016100c791906102d2565b60405180910390fd5b6100df8161017760201b60201c565b50600160075f600181526020019081526020015f205f6101000a81548160ff021916908315150217905550600160075f600281526020019081526020015f205f6101000a81548160ff021916908315150217905550600160075f600381526020019081526020015f205f6101000a81548160ff021916908315150217905550506105f7565b80600290816101739190610528565b5050565b5f60035f9054906101000a900473ffffffffffffffffffffffffffffffffffffffff1690508160035f6101000a81548173ffffffffffffffffffffffffffffffffffffffff021916908373ffffffffffffffffffffffffffffffffffffffff1602179055508173ffffffffffffffffffffffffffffffffffffffff168173ffffffffffffffffffffffffffffffffffffffff167f8be0079c531659141344cd1fd0a4f28419497f9722a3daafe3b4186f6b6457e060405160405180910390a35050565b5f5ffd5b5f73ffffffffffffffffffffffffffffffffffffffff82169050919050565b5f6102678261023e565b9050919050565b6102778161025d565b8114610281575f5ffd5b50565b5f815190506102928161026e565b92915050565b5f602082840312156102ad576102ac61023a565b5b5f6102ba84828501610284565b91505092915050565b6102cc8161025d565b82525050565b5f6020820190506102e55f8301846102c3565b92915050565b5f81519050919050565b7f4e487b71000000000000000000000000000000000000000000000000000000005f52604160045260245ffd5b7f4e487b71000000000000000000000000000000000000000000000000000000005f52602260045260245ffd5b5f600282049050600182168061036657607f821691505b60208210810361037957610378610322565b5b50919050565b5f819050815f5260205f209050919050565b5f6020601f8301049050919050565b5f82821b905092915050565b5f600883026103db7fffffffffffffffffffffffffffffffffffffffffffffffffffffffffffffffff826103a0565b6103e586836103a0565b95508019841693508086168417925050509392505050565b5f819050919050565b5f819050919050565b5f61042961042461041f846103fd565b610406565b6103fd565b9050919050565b5f819050919050565b6104428361040f565b61045661044e82610430565b8484546103ac565b825550505050565b5f5f905090565b61046d61045e565b610478818484610439565b505050565b5b8181101561049b576104905f82610465565b60018101905061047e565b5050565b601f8211156104e0576104b18161037f565b6104ba84610391565b810160208510156104c9578190505b6104dd6104d585610391565b83018261047d565b50505b505050565b5f82821c905092915050565b5f6105005f19846008026104e5565b1980831691505092915050565b5f61051883836104f1565b9150826002028217905092915050565b610531826102eb565b67ffffffffffffffff81111561054a576105496102f5565b5b610554825461034f565b61055f82828561049f565b5f60209050601f831160018114610590575f841561057e578287015190505b610588858261050d565b8655506105ef565b601f19841661059e8661037f565b5f5b828110156105c5578489015182556001820191506020850194506020810190506105a0565b868310156105e257848901516105de601f8916826104f1565b8355505b6001600288020188555050505b505050505050565b613005806106045f395ff3fe608060405234801561000f575f5ffd5b5060043610610170575f3560e01c8063715018a6116100dc578063b47b309711610095578063e26e9a5f1161006f578063e26e9a5f14610448578063e985e9c514610466578063f242432a14610496578063f2fde38b146104b257610170565b8063b47b3097146103dc578063c2acfd551461040c578063dae948af1461042a57610170565b8063715018a61461034257806379bea7ee1461034c5780638da5cb5b14610368578063a22cb46514610386578063a26b99e7146103a2578063a8064425146103c057610170565b80633db0f8ab1161012e5780633db0f8ab1461026e5780634da04ae41461028a5780634e1273f4146102a65780634ec100db146102d65780635d7aa335146103065780636c3ea1121461032457610170565b8062fdd58e1461017457806301ffc9a7146101a45780630e89341c146101d45780631f04ff7b146102045780632d5920d8146102225780632eb2c2d614610252575b5f5ffd5b61018e60048036038101906101899190612002565b6104ce565b60405161019b919061204f565b60405180910390f35b6101be60048036038101906101b991906120bd565b610523565b6040516101cb9190612102565b60405180910390f35b6101ee60048036038101906101e9919061211b565b610604565b6040516101fb91906121b6565b60405180910390f35b61020c610696565b60405161021991906121e5565b60405180910390f35b61023c6004803603810190610237919061211b565b6106bb565b6040516102499190612102565b60405180910390f35b61026c600480360381019061026791906123ee565b6106d8565b005b61028860048036038101906102839190612512565b61077f565b005b6102a4600480360381019061029f91906125a3565b61092a565b005b6102c060048036038101906102bb919061268e565b610975565b6040516102cd91906127bb565b60405180910390f35b6102f060048036038101906102eb9190612830565b610a7f565b6040516102fd919061204f565b60405180910390f35b61030e610b12565b60405161031b919061204f565b60405180910390f35b61032c610b18565b604051610339919061204f565b60405180910390f35b61034a610b1d565b005b6103666004803603810190610361919061287b565b610b30565b005b610370610e9e565b60405161037d91906121e5565b60405180910390f35b6103a0600480360381019061039b9190612923565b610ec6565b005b6103aa610edc565b6040516103b7919061204f565b60405180910390f35b6103da60048036038101906103d591906125a3565b610ee8565b005b6103f660048036038101906103f1919061211b565b610f33565b6040516104039190612102565b60405180910390f35b610414610f59565b60405161042191906129bc565b60405180910390f35b610432610f7e565b60405161043f919061204f565b60405180910390f35b610450610f83565b60405161045d919061204f565b60405180910390f35b610480600480360381019061047b91906129d5565b610f88565b60405161048d9190612102565b60405180910390f35b6104b060048036038101906104ab9190612a13565b611016565b005b6104cc60048036038101906104c791906125a3565b6110bd565b005b5f5f5f8381526020019081526020015f205f8473ffffffffffffffffffffffffffffffffffffffff1673ffffffffffffffffffffffffffffffffffffffff1681526020019081526020015f2054905092915050565b5f7fd9b67a26000000000000000000000000000000000000000000000000000000007bffffffffffffffffffffffffffffffffffffffffffffffffffffffff1916827bffffffffffffffffffffffffffffffffffffffffffffffffffffffff191614806105ed57507f0e89341c000000000000000000000000000000000000000000000000000000007bffffffffffffffffffffffffffffffffffffffffffffffffffffffff1916827bffffffffffffffffffffffffffffffffffffffffffffffffffffffff1916145b806105fd57506105fc82611141565b5b9050919050565b60606002805461061390612ad3565b80601f016020809104026020016040519081016040528092919081815260200182805461063f90612ad3565b801561068a5780601f106106615761010080835404028352916020019161068a565b820191905f5260205f20905b81548152906001019060200180831161066d57829003601f168201915b50505050509050919050565b60055f9054906101000a900473ffffffffffffffffffffffffffffffffffffffff1681565b6007602052805f5260405f205f915054906101000a900460ff1681565b5f6106e16111aa565b90508073ffffffffffffffffffffffffffffffffffffffff168673ffffffffffffffffffffffffffffffffffffffff161415801561072657506107248682610f88565b155b1561076a5780866040517fe237d922000000000000000000000000000000000000000000000000000000008152600401610761929190612b03565b60405180910390fd5b61077786868686866111b1565b505050505050565b60055f9054906101000a900473ffffffffffffffffffffffffffffffffffffffff1673ffffffffffffffffffffffffffffffffffffffff163373ffffffffffffffffffffffffffffffffffffffff1614610805576040517f94cf456500000000000000000000000000000000000000000000000000000000815260040160405180910390fd5b818190508484905014610844576040517f9d89020a00000000000000000000000000000000000000000000000000000000815260040160405180910390fd5b6108cf858585808060200260200160405190810160405280939291908181526020018383602002808284375f81840152601f19601f820116905080830192505050505050508484808060200260200160405190810160405280939291908181526020018383602002808284375f81840152601f19601f820116905080830192505050505050506112a5565b8473ffffffffffffffffffffffffffffffffffffffff167f65dfe6b8ac35697c6993ca47cd9cd4029705816daf6374e6cdcd81d9b46df37e8585858560405161091b9493929190612b92565b60405180910390a25050505050565b610932611335565b8060055f6101000a81548173ffffffffffffffffffffffffffffffffffffffff021916908373ffffffffffffffffffffffffffffffffffffffff16021790555050565b606081518351146109c157815183516040517f5b0599910000000000000000000000000000000000000000000000000000000081526004016109b8929190612bcb565b60405180910390fd5b5f835167ffffffffffffffff8111156109dd576109dc612202565b5b604051908082528060200260200182016040528015610a0b5781602001602082028036833780820191505090505b5090505f5f90505b8451811015610a7457610a4a610a3282876113bc90919063ffffffff16565b610a4583876113cf90919063ffffffff16565b6104ce565b828281518110610a5d57610a5c612bf2565b5b602002602001018181525050806001019050610a13565b508091505092915050565b5f610a88611335565b5f600654905060065f815480929190610aa090612c4c565b9190505550600160075f8381526020019081526020015f205f6101000a81548160ff021916908315150217905550807f5925c2bbb2d26e986e5c95d81294209c87c7f944a25bd595b3c716b9cfc9edf78585604051610b00929190612cbf565b60405180910390a28091505092915050565b60065481565b600281565b610b25611335565b610b2e5f6113e2565b565b818190508484905014610b6f576040517f9d89020a00000000000000000000000000000000000000000000000000000000815260040160405180910390fd5b5f5f90505f5f90505b85859050811015610c375760075f878784818110610b9957610b98612bf2565b5b9050602002013581526020019081526020015f205f9054906101000a900460ff16610bf0576040517ffca0aa6a00000000000000000000000000000000000000000000000000000000815260040160405180910390fd5b678ac7230489e80000848483818110610c0c57610c0b612bf2565b5b90506020020135610c1d9190612ce1565b82610c289190612d22565b91508080600101915050610b78565b508060045f9054906101000a900473ffffffffffffffffffffffffffffffffffffffff1673ffffffffffffffffffffffffffffffffffffffff166370a08231336040518263ffffffff1660e01b8152600401610c9391906121e5565b602060405180830381865afa158015610cae573d5f5f3e3d5ffd5b505050506040513d601f19601f82011682018060405250810190610cd29190612d69565b1015610d0a576040517ff1b7e15e00000000000000000000000000000000000000000000000000000000815260040160405180910390fd5b60045f9054906101000a900473ffffffffffffffffffffffffffffffffffffffff1673ffffffffffffffffffffffffffffffffffffffff166323b872dd3330846040518463ffffffff1660e01b8152600401610d6893929190612d94565b6020604051808303815f875af1158015610d84573d5f5f3e3d5ffd5b505050506040513d601f19601f82011682018060405250810190610da89190612ddd565b50610e43338686808060200260200160405190810160405280939291908181526020018383602002808284375f81840152601f19601f820116905080830192505050505050508585808060200260200160405190810160405280939291908181526020018383602002808284375f81840152601f19601f8201169050808301925050505050505060405180602001604052805f8152506114a5565b3373ffffffffffffffffffffffffffffffffffffffff167fa882d525faf901581ab18a5f7125f28457a052709c83a84b6a16a13eb0bdbf1e86868686604051610e8f9493929190612b92565b60405180910390a25050505050565b5f60035f9054906101000a900473ffffffffffffffffffffffffffffffffffffffff16905090565b610ed8610ed16111aa565b8383611528565b5050565b678ac7230489e8000081565b610ef0611335565b8060045f6101000a81548173ffffffffffffffffffffffffffffffffffffffff021916908373ffffffffffffffffffffffffffffffffffffffff16021790555050565b5f60075f8381526020019081526020015f205f9054906101000a900460ff169050919050565b60045f9054906101000a900473ffffffffffffffffffffffffffffffffffffffff1681565b600381565b600181565b5f60015f8473ffffffffffffffffffffffffffffffffffffffff1673ffffffffffffffffffffffffffffffffffffffff1681526020019081526020015f205f8373ffffffffffffffffffffffffffffffffffffffff1673ffffffffffffffffffffffffffffffffffffffff1681526020019081526020015f205f9054906101000a900460ff16905092915050565b5f61101f6111aa565b90508073ffffffffffffffffffffffffffffffffffffffff168673ffffffffffffffffffffffffffffffffffffffff161415801561106457506110628682610f88565b155b156110a85780866040517fe237d92200000000000000000000000000000000000000000000000000000000815260040161109f929190612b03565b60405180910390fd5b6110b58686868686611691565b505050505050565b6110c5611335565b5f73ffffffffffffffffffffffffffffffffffffffff168173ffffffffffffffffffffffffffffffffffffffff1603611135575f6040517f1e4fbdf700000000000000000000000000000000000000000000000000000000815260040161112c91906121e5565b60405180910390fd5b61113e816113e2565b50565b5f7f01ffc9a7000000000000000000000000000000000000000000000000000000007bffffffffffffffffffffffffffffffffffffffffffffffffffffffff1916827bffffffffffffffffffffffffffffffffffffffffffffffffffffffff1916149050919050565b5f33905090565b5f73ffffffffffffffffffffffffffffffffffffffff168473ffffffffffffffffffffffffffffffffffffffff1603611221575f6040517f57f447ce00000000000000000000000000000000000000000000000000000000815260040161121891906121e5565b60405180910390fd5b5f73ffffffffffffffffffffffffffffffffffffffff168573ffffffffffffffffffffffffffffffffffffffff1603611291575f6040517f01a8351400000000000000000000000000000000000000000000000000000000815260040161128891906121e5565b60405180910390fd5b61129e8585858585611797565b5050505050565b5f73ffffffffffffffffffffffffffffffffffffffff168373ffffffffffffffffffffffffffffffffffffffff1603611315575f6040517f01a8351400000000000000000000000000000000000000000000000000000000815260040161130c91906121e5565b60405180910390fd5b611330835f848460405180602001604052805f815250611797565b505050565b61133d6111aa565b73ffffffffffffffffffffffffffffffffffffffff1661135b610e9e565b73ffffffffffffffffffffffffffffffffffffffff16146113ba5761137e6111aa565b6040517f118cdaa70000000000000000000000000000000000000000000000000000000081526004016113b191906121e5565b60405180910390fd5b565b5f60208202602084010151905092915050565b5f60208202602084010151905092915050565b5f60035f9054906101000a900473ffffffffffffffffffffffffffffffffffffffff1690508160035f6101000a81548173ffffffffffffffffffffffffffffffffffffffff021916908373ffffffffffffffffffffffffffffffffffffffff1602179055508173ffffffffffffffffffffffffffffffffffffffff168173ffffffffffffffffffffffffffffffffffffffff167f8be0079c531659141344cd1fd0a4f28419497f9722a3daafe3b4186f6b6457e060405160405180910390a35050565b5f73ffffffffffffffffffffffffffffffffffffffff168473ffffffffffffffffffffffffffffffffffffffff1603611515575f6040517f57f447ce00000000000000000000000000000000000000000000000000000000815260040161150c91906121e5565b60405180910390fd5b6115225f85858585611797565b50505050565b5f73ffffffffffffffffffffffffffffffffffffffff168273ffffffffffffffffffffffffffffffffffffffff1603611598575f6040517fced3e10000000000000000000000000000000000000000000000000000000000815260040161158f91906121e5565b60405180910390fd5b8060015f8573ffffffffffffffffffffffffffffffffffffffff1673ffffffffffffffffffffffffffffffffffffffff1681526020019081526020015f205f8473ffffffffffffffffffffffffffffffffffffffff1673ffffffffffffffffffffffffffffffffffffffff1681526020019081526020015f205f6101000a81548160ff0219169083151502179055508173ffffffffffffffffffffffffffffffffffffffff168373ffffffffffffffffffffffffffffffffffffffff167f17307eab39ab6107e8899845ad3d59bd9653f200f220920489ca2b5937696c31836040516116849190612102565b60405180910390a3505050565b5f73ffffffffffffffffffffffffffffffffffffffff168473ffffffffffffffffffffffffffffffffffffffff1603611701575f6040517f57f447ce0000000000000000000000000000000000000000000000000000000081526004016116f891906121e5565b60405180910390fd5b5f73ffffffffffffffffffffffffffffffffffffffff168573ffffffffffffffffffffffffffffffffffffffff1603611771575f6040517f01a8351400000000000000000000000000000000000000000000000000000000815260040161176891906121e5565b60405180910390fd5b5f5f61177d8585611843565b9150915061178e8787848487611797565b50505050505050565b6117a385858585611873565b5f73ffffffffffffffffffffffffffffffffffffffff168473ffffffffffffffffffffffffffffffffffffffff161461183c575f6117df6111aa565b9050600184510361182b575f6117fe5f866113cf90919063ffffffff16565b90505f6118145f866113cf90919063ffffffff16565b9050611824838989858589611c06565b505061183a565b611839818787878787611db5565b5b505b5050505050565b60608060405191506001825283602083015260408201905060018152826020820152604081016040529250929050565b80518251146118bd57815181516040517f5b0599910000000000000000000000000000000000000000000000000000000081526004016118b4929190612bcb565b60405180910390fd5b5f6118c66111aa565b90505f5f90505b8351811015611ac5575f6118ea82866113cf90919063ffffffff16565b90505f61190083866113cf90919063ffffffff16565b90505f73ffffffffffffffffffffffffffffffffffffffff168873ffffffffffffffffffffffffffffffffffffffff1614611a23575f5f5f8481526020019081526020015f205f8a73ffffffffffffffffffffffffffffffffffffffff1673ffffffffffffffffffffffffffffffffffffffff1681526020019081526020015f20549050818110156119cf57888183856040517f03dee4c50000000000000000000000000000000000000000000000000000000081526004016119c69493929190612e08565b60405180910390fd5b8181035f5f8581526020019081526020015f205f8b73ffffffffffffffffffffffffffffffffffffffff1673ffffffffffffffffffffffffffffffffffffffff1681526020019081526020015f2081905550505b5f73ffffffffffffffffffffffffffffffffffffffff168773ffffffffffffffffffffffffffffffffffffffff1614611ab857805f5f8481526020019081526020015f205f8973ffffffffffffffffffffffffffffffffffffffff1673ffffffffffffffffffffffffffffffffffffffff1681526020019081526020015f205f828254611ab09190612d22565b925050819055505b50508060010190506118cd565b506001835103611b80575f611ae35f856113cf90919063ffffffff16565b90505f611af95f856113cf90919063ffffffff16565b90508573ffffffffffffffffffffffffffffffffffffffff168773ffffffffffffffffffffffffffffffffffffffff168473ffffffffffffffffffffffffffffffffffffffff167fc3d58168c5ae7397731d063d5bbf3d657854427343f4c083240f7aacaa2d0f628585604051611b71929190612bcb565b60405180910390a45050611bff565b8373ffffffffffffffffffffffffffffffffffffffff168573ffffffffffffffffffffffffffffffffffffffff168273ffffffffffffffffffffffffffffffffffffffff167f4a39dc06d4c0dbc64b70af90fd698a233a518aa5d07e595d983b8c0526c8f7fb8686604051611bf6929190612e4b565b60405180910390a45b5050505050565b5f8473ffffffffffffffffffffffffffffffffffffffff163b1115611dad578373ffffffffffffffffffffffffffffffffffffffff1663f23a6e6187878686866040518663ffffffff1660e01b8152600401611c66959493929190612ed2565b6020604051808303815f875af1925050508015611ca157506040513d601f19601f82011682018060405250810190611c9e9190612f3e565b60015b611d22573d805f8114611ccf576040519150601f19603f3d011682016040523d82523d5f602084013e611cd4565b606091505b505f815103611d1a57846040517f57f447ce000000000000000000000000000000000000000000000000000000008152600401611d1191906121e5565b60405180910390fd5b805181602001fd5b63f23a6e6160e01b7bffffffffffffffffffffffffffffffffffffffffffffffffffffffff1916817bffffffffffffffffffffffffffffffffffffffffffffffffffffffff191614611dab57846040517f57f447ce000000000000000000000000000000000000000000000000000000008152600401611da291906121e5565b60405180910390fd5b505b505050505050565b5f8473ffffffffffffffffffffffffffffffffffffffff163b1115611f5c578373ffffffffffffffffffffffffffffffffffffffff1663bc197c8187878686866040518663ffffffff1660e01b8152600401611e15959493929190612f69565b6020604051808303815f875af1925050508015611e5057506040513d601f19601f82011682018060405250810190611e4d9190612f3e565b60015b611ed1573d805f8114611e7e576040519150601f19603f3d011682016040523d82523d5f602084013e611e83565b606091505b505f815103611ec957846040517f57f447ce000000000000000000000000000000000000000000000000000000008152600401611ec091906121e5565b60405180910390fd5b805181602001fd5b63bc197c8160e01b7bffffffffffffffffffffffffffffffffffffffffffffffffffffffff1916817bffffffffffffffffffffffffffffffffffffffffffffffffffffffff191614611f5a57846040517f57f447ce000000000000000000000000000000000000000000000000000000008152600401611f5191906121e5565b60405180910390fd5b505b505050505050565b5f604051905090565b5f5ffd5b5f5ffd5b5f73ffffffffffffffffffffffffffffffffffffffff82169050919050565b5f611f9e82611f75565b9050919050565b611fae81611f94565b8114611fb8575f5ffd5b50565b5f81359050611fc981611fa5565b92915050565b5f819050919050565b611fe181611fcf565b8114611feb575f5ffd5b50565b5f81359050611ffc81611fd8565b92915050565b5f5f6040838503121561201857612017611f6d565b5b5f61202585828601611fbb565b925050602061203685828601611fee565b9150509250929050565b61204981611fcf565b82525050565b5f6020820190506120625f830184612040565b92915050565b5f7fffffffff0000000000000000000000000000000000000000000000000000000082169050919050565b61209c81612068565b81146120a6575f5ffd5b50565b5f813590506120b781612093565b92915050565b5f602082840312156120d2576120d1611f6d565b5b5f6120df848285016120a9565b91505092915050565b5f8115159050919050565b6120fc816120e8565b82525050565b5f6020820190506121155f8301846120f3565b92915050565b5f602082840312156121305761212f611f6d565b5b5f61213d84828501611fee565b91505092915050565b5f81519050919050565b5f82825260208201905092915050565b8281835e5f83830152505050565b5f601f19601f8301169050919050565b5f61218882612146565b6121928185612150565b93506121a2818560208601612160565b6121ab8161216e565b840191505092915050565b5f6020820190508181035f8301526121ce818461217e565b905092915050565b6121df81611f94565b82525050565b5f6020820190506121f85f8301846121d6565b92915050565b5f5ffd5b7f4e487b71000000000000000000000000000000000000000000000000000000005f52604160045260245ffd5b6122388261216e565b810181811067ffffffffffffffff8211171561225757612256612202565b5b80604052505050565b5f612269611f64565b9050612275828261222f565b919050565b5f67ffffffffffffffff82111561229457612293612202565b5b602082029050602081019050919050565b5f5ffd5b5f6122bb6122b68461227a565b612260565b905080838252602082019050602084028301858111156122de576122dd6122a5565b5b835b8181101561230757806122f38882611fee565b8452602084019350506020810190506122e0565b5050509392505050565b5f82601f830112612325576123246121fe565b5b81356123358482602086016122a9565b91505092915050565b5f5ffd5b5f67ffffffffffffffff82111561235c5761235b612202565b5b6123658261216e565b9050602081019050919050565b828183375f83830152505050565b5f61239261238d84612342565b612260565b9050828152602081018484840111156123ae576123ad61233e565b5b6123b9848285612372565b509392505050565b5f82601f8301126123d5576123d46121fe565b5b81356123e5848260208601612380565b91505092915050565b5f5f5f5f5f60a0868803121561240757612406611f6d565b5b5f61241488828901611fbb565b955050602061242588828901611fbb565b945050604086013567ffffffffffffffff81111561244657612445611f71565b5b61245288828901612311565b935050606086013567ffffffffffffffff81111561247357612472611f71565b5b61247f88828901612311565b925050608086013567ffffffffffffffff8111156124a05761249f611f71565b5b6124ac888289016123c1565b9150509295509295909350565b5f5ffd5b5f5f83601f8401126124d2576124d16121fe565b5b8235905067ffffffffffffffff8111156124ef576124ee6124b9565b5b60208301915083602082028301111561250b5761250a6122a5565b5b9250929050565b5f5f5f5f5f6060868803121561252b5761252a611f6d565b5b5f61253888828901611fbb565b955050602086013567ffffffffffffffff81111561255957612558611f71565b5b612565888289016124bd565b9450945050604086013567ffffffffffffffff81111561258857612587611f71565b5b612594888289016124bd565b92509250509295509295909350565b5f602082840312156125b8576125b7611f6d565b5b5f6125c584828501611fbb565b91505092915050565b5f67ffffffffffffffff8211156125e8576125e7612202565b5b602082029050602081019050919050565b5f61260b612606846125ce565b612260565b9050808382526020820190506020840283018581111561262e5761262d6122a5565b5b835b8181101561265757806126438882611fbb565b845260208401935050602081019050612630565b5050509392505050565b5f82601f830112612675576126746121fe565b5b81356126858482602086016125f9565b91505092915050565b5f5f604083850312156126a4576126a3611f6d565b5b5f83013567ffffffffffffffff8111156126c1576126c0611f71565b5b6126cd85828601612661565b925050602083013567ffffffffffffffff8111156126ee576126ed611f71565b5b6126fa85828601612311565b9150509250929050565b5f81519050919050565b5f82825260208201905092915050565b5f819050602082019050919050565b61273681611fcf565b82525050565b5f612747838361272d565b60208301905092915050565b5f602082019050919050565b5f61276982612704565b612773818561270e565b935061277e8361271e565b805f5b838110156127ae578151612795888261273c565b97506127a083612753565b925050600181019050612781565b5085935050505092915050565b5f6020820190508181035f8301526127d3818461275f565b905092915050565b5f5f83601f8401126127f0576127ef6121fe565b5b8235905067ffffffffffffffff81111561280d5761280c6124b9565b5b602083019150836001820283011115612829576128286122a5565b5b9250929050565b5f5f6020838503121561284657612845611f6d565b5b5f83013567ffffffffffffffff81111561286357612862611f71565b5b61286f858286016127db565b92509250509250929050565b5f5f5f5f6040858703121561289357612892611f6d565b5b5f85013567ffffffffffffffff8111156128b0576128af611f71565b5b6128bc878288016124bd565b9450945050602085013567ffffffffffffffff8111156128df576128de611f71565b5b6128eb878288016124bd565b925092505092959194509250565b612902816120e8565b811461290c575f5ffd5b50565b5f8135905061291d816128f9565b92915050565b5f5f6040838503121561293957612938611f6d565b5b5f61294685828601611fbb565b92505060206129578582860161290f565b9150509250929050565b5f819050919050565b5f61298461297f61297a84611f75565b612961565b611f75565b9050919050565b5f6129958261296a565b9050919050565b5f6129a68261298b565b9050919050565b6129b68161299c565b82525050565b5f6020820190506129cf5f8301846129ad565b92915050565b5f5f604083850312156129eb576129ea611f6d565b5b5f6129f885828601611fbb565b9250506020612a0985828601611fbb565b9150509250929050565b5f5f5f5f5f60a08688031215612a2c57612a2b611f6d565b5b5f612a3988828901611fbb565b9550506020612a4a88828901611fbb565b9450506040612a5b88828901611fee565b9350506060612a6c88828901611fee565b925050608086013567ffffffffffffffff811115612a8d57612a8c611f71565b5b612a99888289016123c1565b9150509295509295909350565b7f4e487b71000000000000000000000000000000000000000000000000000000005f52602260045260245ffd5b5f6002820490506001821680612aea57607f821691505b602082108103612afd57612afc612aa6565b5b50919050565b5f604082019050612b165f8301856121d6565b612b2360208301846121d6565b9392505050565b5f5ffd5b82818337505050565b5f612b42838561270e565b93507f07ffffffffffffffffffffffffffffffffffffffffffffffffffffffffffffff831115612b7557612b74612b2a565b5b602083029250612b86838584612b2e565b82840190509392505050565b5f6040820190508181035f830152612bab818688612b37565b90508181036020830152612bc0818486612b37565b905095945050505050565b5f604082019050612bde5f830185612040565b612beb6020830184612040565b9392505050565b7f4e487b71000000000000000000000000000000000000000000000000000000005f52603260045260245ffd5b7f4e487b71000000000000000000000000000000000000000000000000000000005f52601160045260245ffd5b5f612c5682611fcf565b91507fffffffffffffffffffffffffffffffffffffffffffffffffffffffffffffffff8203612c8857612c87612c1f565b5b600182019050919050565b5f612c9e8385612150565b9350612cab838584612372565b612cb48361216e565b840190509392505050565b5f6020820190508181035f830152612cd8818486612c93565b90509392505050565b5f612ceb82611fcf565b9150612cf683611fcf565b9250828202612d0481611fcf565b91508282048414831517612d1b57612d1a612c1f565b5b5092915050565b5f612d2c82611fcf565b9150612d3783611fcf565b9250828201905080821115612d4f57612d4e612c1f565b5b92915050565b5f81519050612d6381611fd8565b92915050565b5f60208284031215612d7e57612d7d611f6d565b5b5f612d8b84828501612d55565b91505092915050565b5f606082019050612da75f8301866121d6565b612db460208301856121d6565b612dc16040830184612040565b949350505050565b5f81519050612dd7816128f9565b92915050565b5f60208284031215612df257612df1611f6d565b5b5f612dff84828501612dc9565b91505092915050565b5f608082019050612e1b5f8301876121d6565b612e286020830186612040565b612e356040830185612040565b612e426060830184612040565b95945050505050565b5f6040820190508181035f830152612e63818561275f565b90508181036020830152612e77818461275f565b90509392505050565b5f81519050919050565b5f82825260208201905092915050565b5f612ea482612e80565b612eae8185612e8a565b9350612ebe818560208601612160565b612ec78161216e565b840191505092915050565b5f60a082019050612ee55f8301886121d6565b612ef260208301876121d6565b612eff6040830186612040565b612f0c6060830185612040565b8181036080830152612f1e8184612e9a565b90509695505050505050565b5f81519050612f3881612093565b92915050565b5f60208284031215612f5357612f52611f6d565b5b5f612f6084828501612f2a565b91505092915050565b5f60a082019050612f7c5f8301886121d6565b612f8960208301876121d6565b8181036040830152612f9b818661275f565b90508181036060830152612faf818561275f565b90508181036080830152612fc38184612e9a565b9050969550505050505056fea2646970667358221220d44a229173475e63f673f0d9e3835e0e9a85e6f427f8cd1e21a487afa969b10564736f6c634300081e003368747470733a2f2f636861696e7363686f6f6c2e636f6d2f696e6772656469656e74732f7b69647d","linkReferences":{}},"methodIdentifiers":{"BACON()":"dae948af","CHEESE()":"6c3ea112","EGG()":"e26e9a5f","PRICE_PER_INGREDIENT()":"a26b99e7","addIngredient(string)":"4ec100db","balanceOf(address,uint256)":"00fdd58e","balanceOfBatch(address[],uint256[])":"4e1273f4","burn(address,uint256[],uint256[])":"3db0f8ab","buyBatch(uint256[],uint256[])":"79bea7ee","dishNFT()":"1f04ff7b","ingredientExists(uint256)":"2d5920d8","ingredientExistsById(uint256)":"b47b3097","isApprovedForAll(address,address)":"e985e9c5","kitchenToken()":"c2acfd55","nextIngredientId()":"5d7aa335","owner()":"8da5cb5b","renounceOwnership()":"715018a6","safeBatchTransferFrom(address,address,uint256[],uint256[],bytes)":"2eb2c2d6","safeTransferFrom(address,address,uint256,uint256,bytes)":"f242432a","setApprovalForAll(address,bool)":"a22cb465","setDishNFT(address)":"4da04ae4","setKitchenToken(address)":"a8064425","supportsInterface(bytes4)":"01ffc9a7","transferOwnership(address)":"f2fde38b","uri(uint256)":"0e89341c"},"id":2}