{"abi":[{"type":"constructor","inputs":[{"name":"_owner","type":"address","internalType":"address"}],"stateMutability":"nonpayable"},{"type":"function","name":"approve","inputs":[{"name":"to","type":"address","internalType":"address"},{"name":"tokenId","type":"uint256","internalType":"uint256"}],"outputs":[],"stateMutability":"nonpayable"},{"type":"function","name":"balanceOf","inputs":[{"name":"owner","type":"address","internalType":"address"}],"outputs":[{"name":"","type":"uint256","internalType":"uint256"}],"stateMutability":"view"},{"type":"function","name":"cook","inputs":[{"name":"ingredientIds","type":"uint256[]","internalType":"uint256[]"},{"name":"amounts","type":"uint256[]","internalType":"uint256[]"}],"outputs":[{"name":"","type":"uint256","internalType":"uint256"}],"stateMutability":"nonpayable"},{"type":"function","name":"getApproved","inputs":[{"name":"tokenId","type":"uint256","internalType":"uint256"}],"outputs":[{"name":"","type":"address","internalType":"address"}],"stateMutability":"view"},{"type":"function","name":"getRecipe","inputs":[{"name":"tokenId","type":"uint256","internalType":"uint256"}],"outputs":[{"name":"","type":"tuple","internalType":"struct DishNFT.Recipe","components":[{"name":"ingredientIds","type":"uint256[]","internalType":"uint256[]"},{"name":"amounts","type":"uint256[]","internalType":"uint256[]"},{"name":"timestamp","type":"uint256","internalType":"uint256"}]}],"stateMutability":"view"},{"type":"function","name":"ingredients","inputs":[],"outputs":[{"name":"","type":"address","internalType":"contract IIngredients"}],"stateMutability":"view"},{"type":"function","name":"isApprovedForAll","inputs":[{"name":"owner","type":"address","internalType":"address"},{"name":"operator","type":"address","internalType":"address"}],"outputs":[{"name":"","type":"bool","internalType":"bool"}],"stateMutability":"view"},{"type":"function","name":"name","inputs":[],"outputs":[{"name":"","type":"string","internalType":"string"}],"stateMutability":"view"},{"type":"function","name":"nextTokenId","inputs":[],"outputs":[{"name":"","type":"uint256","internalType":"uint256"}],"stateMutability":"view"},{"type":"function","name":"owner","inputs":[],"outputs":[{"name":"","type":"address","internalType":"address"}],"stateMutability":"view"},{"type":"function","name":"ownerOf","inputs":[{"name":"tokenId","type":"uint256","internalType":"uint256"}],"outputs":[{"name":"","type":"address","internalType":"address"}],"stateMutability":"view"},{"type":"function","name":"recipes","inputs":[{"name":"","type":"uint256","internalType":"uint256"}],"outputs":[{"name":"timestamp","type":"uint256","internalType":"uint256"}],"stateMutability":"view"},{"type":"function","name":"renounceOwnership","inputs":[],"outputs":[],"stateMutability":"nonpayable"},{"type":"function","name":"safeTransferFrom","inputs":[{"name":"from","type":"address","internalType":"address"},{"name":"to","type":"address","internalType":"address"},{"name":"tokenId","type":"uint256","internalType":"uint256"}],"outputs":[],"stateMutability":"nonpayable"},{"type":"function","name":"safeTransferFrom","inputs":[{"name":"from","type":"address","internalType":"address"},{"name":"to","type":"address","internalType":"address"},{"name":"tokenId","type":"uint256","internalType":"uint256"},{"name":"data","type":"bytes","internalType":"bytes"}],"outputs":[],"stateMutability":"nonpayable"},{"type":"function","name":"setApprovalForAll","inputs":[{"name":"operator","type":"address","internalType":"address"},{"name":"approved","type":"bool","internalType":"bool"}],"outputs":[],"stateMutability":"nonpayable"},{"type":"function","name":"setIngredients","inputs":[{"name":"_ingredients","type":"address","internalType":"address"}],"outputs":[],"stateMutability":"nonpayable"},{"type":"function","name":"supportsInterface","inputs":[{"name":"interfaceId","type":"bytes4","internalType":"bytes4"}],"outputs":[{"name":"","type":"bool","internalType":"bool"}],"stateMutability":"view"},{"type":"function","name":"symbol","inputs":[],"outputs":[{"name":"","type":"string","internalType":"string"}],"stateMutability":"view"},{"type":"function","name":"tokenURI","inputs":[{"name":"tokenId","type":"uint256","internalType":"uint256"}],"outputs":[{"name":"","type":"string","internalType":"string"}],"stateMutability":"view"},{"type":"function","name":"transferFrom","inputs":[{"name":"from","type":"address","internalType":"address"},{"name":"to","type":"address","internalType":"address"},{"name":"tokenId","type":"uint256","internalType":"uint256"}],"outputs":[],"stateMutability":"nonpayable"},{"type":"function","name":"transferOwnership","inputs":[{"name":"newOwner","type":"address","internalType":"address"}],"outputs":[],"stateMutability":"nonpayable"},{"type":"event","name":"Approval","inputs":[{"name":"owner","type":"address","indexed":true,"internalType":"address"},{"name":"approved","type":"address","indexed":true,"internalType":"address"},{"name":"tokenId","type":"uint256","indexed":true,"internalType":"uint256"}],"anonymous":false},{"type":"event","name":"ApprovalForAll","inputs":[{"name":"owner","type":"address","indexed":true,"internalType":"address"},{"name":"operator","type":"address","indexed":true,"internalType":"address"},{"name":"approved","type":"bool","indexed":false,"internalType":"bool"}],"anonymous":false},{"type":"event","name":"DishCooked","inputs":[{"name":"chef","type":"address","indexed":true,"internalType":"address"},{"name":"tokenId","type":"uint256","indexed":true,"internalType":"uint256"},{"name":"ingredientIds","type":"uint256[]","indexed":false,"internalType":"uint256[]"},{"name":"amounts","type":"uint256[]","indexed":false,"internalType":"uint256[]"}],"anonymous":false},{"type":"event","name":"OwnershipTransferred","inputs":[{"name":"previousOwner","type":"address","indexed":true,"internalType":"address"},{"name":"newOwner","type":"address","indexed":true,"internalType":"address"}],"anonymous":false},{"type":"event","name":"Transfer","inputs":[{"name":"from","type":"address","indexed":true,"internalType":"address"},{"name":"to","type":"address","indexed":true,"internalType":"address"},{"name":"tokenId","type":"uint256","indexed":true,"internalType":"uint256"}],"anonymous":false},{"type":"error","name":"ERC721IncorrectOwner","inputs":[{"name":"sender","type":"address","internalType":"address"},{"name":"tokenId","type":"uint256","internalType":"uint256"},{"name":"owner","type":"address","internalType":"address"}]},{"type":"error","name":"ERC721InsufficientApproval","inputs":[{"name":"operator","type":"address","internalType":"address"},{"name":"tokenId","type":"uint256","internalType":"uint256"}]},{"type":"error","name":"ERC721InvalidApprover","inputs":[{"name":"approver","type":"address","internalType":"address"}]},{"type":"error","name":"ERC721InvalidOperator","inputs":[{"name":"operator","type":"address","internalType":"address"}]},{"type":"error","name":"ERC721InvalidOwner","inputs":[{"name":"owner","type":"address","internalType":"address"}]},{"type":"error","name":"ERC721InvalidReceiver","inputs":[{"name":"receiver","type":"address","internalType":"address"}]},{"type":"error","name":"ERC721InvalidSender","inputs":[{"name":"sender","type":"address","internalType":"address"}]},{"type":"error","name":"ERC721NonexistentToken","inputs":[{"name":"tokenId","type":"uint256","internalType":"uint256"}]},{"type":"error","name":"EmptyRecipe","inputs":[]},{"type":"error","name":"InsufficientIngredients","inputs":[]},{"type":"error","name":"InvalidArrayLength","inputs":[]},{"type":"error","name":"OwnableInvalidOwner","inputs":[{"name":"owner","type":"address","internalType":"address"}]},{"type":"error","name":"OwnableUnauthorizedAccount","inputs":[{"name":"account","type":"address","internalType":"address"}]}],"bytecode":{"object":"0x60806040526001600855348015610014575f5ffd5b50604051614ef8380380614ef88339818101604052810190610036919061026b565b806040518060400160405280601281526020017f436861696e5363686f6f6c2044697368657300000000000000000000000000008152506040518060400160405280600481526020017f4449534800000000000000000000000000000000000000000000000000000000815250815f90816100b191906104d3565b5080600190816100c191906104d3565b5050505f73ffffffffffffffffffffffffffffffffffffffff168173ffffffffffffffffffffffffffffffffffffffff1603610134575f6040517f1e4fbdf700000000000000000000000000000000000000000000000000000000815260040161012b91906105b1565b60405180910390fd5b6101438161014a60201b60201c565b50506105ca565b5f60065f9054906101000a900473ffffffffffffffffffffffffffffffffffffffff1690508160065f6101000a81548173ffffffffffffffffffffffffffffffffffffffff021916908373ffffffffffffffffffffffffffffffffffffffff1602179055508173ffffffffffffffffffffffffffffffffffffffff168173ffffffffffffffffffffffffffffffffffffffff167f8be0079c531659141344cd1fd0a4f28419497f9722a3daafe3b4186f6b6457e060405160405180910390a35050565b5f5ffd5b5f73ffffffffffffffffffffffffffffffffffffffff82169050919050565b5f61023a82610211565b9050919050565b61024a81610230565b8114610254575f5ffd5b50565b5f8151905061026581610241565b92915050565b5f602082840312156102805761027f61020d565b5b5f61028d84828501610257565b91505092915050565b5f81519050919050565b7f4e487b71000000000000000000000000000000000000000000000000000000005f52604160045260245ffd5b7f4e487b71000000000000000000000000000000000000000000000000000000005f52602260045260245ffd5b5f600282049050600182168061031157607f821691505b602082108103610324576103236102cd565b5b50919050565b5f819050815f5260205f209050919050565b5f6020601f8301049050919050565b5f82821b905092915050565b5f600883026103867fffffffffffffffffffffffffffffffffffffffffffffffffffffffffffffffff8261034b565b610390868361034b565b95508019841693508086168417925050509392505050565b5f819050919050565b5f819050919050565b5f6103d46103cf6103ca846103a8565b6103b1565b6103a8565b9050919050565b5f819050919050565b6103ed836103ba565b6104016103f9826103db565b848454610357565b825550505050565b5f5f905090565b610418610409565b6104238184846103e4565b505050565b5b818110156104465761043b5f82610410565b600181019050610429565b5050565b601f82111561048b5761045c8161032a565b6104658461033c565b81016020851015610474578190505b6104886104808561033c565b830182610428565b50505b505050565b5f82821c905092915050565b5f6104ab5f1984600802610490565b1980831691505092915050565b5f6104c3838361049c565b9150826002028217905092915050565b6104dc82610296565b67ffffffffffffffff8111156104f5576104f46102a0565b5b6104ff82546102fa565b61050a82828561044a565b5f60209050601f83116001811461053b575f8415610529578287015190505b61053385826104b8565b86555061059a565b601f1984166105498661032a565b5f5b828110156105705784890151825560018201915060208501945060208101905061054b565b8683101561058d5784890151610589601f89168261049c565b8355505b6001600288020188555050505b505050505050565b6105ab81610230565b82525050565b5f6020820190506105c45f8301846105a2565b92915050565b614921806105d75f395ff3fe608060405234801561000f575f5ffd5b5060043610610140575f3560e01c806375794a3c116100b6578063c87b56dd1161007a578063c87b56dd1461035e578063d6da3d611461038e578063e985e9c5146103ac578063eddd8c56146103dc578063f2fde38b1461040c578063f8d12a411461042857610140565b806375794a3c146102cc5780638da5cb5b146102ea57806395d89b4114610308578063a22cb46514610326578063b88d4fde1461034257610140565b806330fde5741161010857806330fde574146101fa57806342842e0e14610216578063443c227c146102325780636352211e1461026257806370a0823114610292578063715018a6146102c257610140565b806301ffc9a71461014457806306fdde0314610174578063081812fc14610192578063095ea7b3146101c257806323b872dd146101de575b5f5ffd5b61015e60048036038101906101599190612803565b610458565b60405161016b9190612848565b60405180910390f35b61017c610539565b60405161018991906128d1565b60405180910390f35b6101ac60048036038101906101a79190612924565b6105c8565b6040516101b9919061298e565b60405180910390f35b6101dc60048036038101906101d791906129d1565b6105e3565b005b6101f860048036038101906101f39190612a0f565b6105f9565b005b610214600480360381019061020f9190612a5f565b6106f8565b005b610230600480360381019061022b9190612a0f565b610743565b005b61024c60048036038101906102479190612924565b610762565b6040516102599190612a99565b60405180910390f35b61027c60048036038101906102779190612924565b61077d565b604051610289919061298e565b60405180910390f35b6102ac60048036038101906102a79190612a5f565b61078e565b6040516102b99190612a99565b60405180910390f35b6102ca610844565b005b6102d4610857565b6040516102e19190612a99565b60405180910390f35b6102f261085d565b6040516102ff919061298e565b60405180910390f35b610310610885565b60405161031d91906128d1565b60405180910390f35b610340600480360381019061033b9190612adc565b610915565b005b61035c60048036038101906103579190612c46565b61092b565b005b61037860048036038101906103739190612924565b610950565b60405161038591906128d1565b60405180910390f35b610396610b13565b6040516103a39190612d21565b60405180910390f35b6103c660048036038101906103c19190612d3a565b610b38565b6040516103d39190612848565b60405180910390f35b6103f660048036038101906103f19190612dd5565b610bc6565b6040516104039190612a99565b60405180910390f35b61042660048036038101906104219190612a5f565b61102f565b005b610442600480360381019061043d9190612924565b6110b3565b60405161044f9190612f5e565b60405180910390f35b5f7f80ac58cd000000000000000000000000000000000000000000000000000000007bffffffffffffffffffffffffffffffffffffffffffffffffffffffff1916827bffffffffffffffffffffffffffffffffffffffffffffffffffffffff1916148061052257507f5b5e139f000000000000000000000000000000000000000000000000000000007bffffffffffffffffffffffffffffffffffffffffffffffffffffffff1916827bffffffffffffffffffffffffffffffffffffffffffffffffffffffff1916145b80610532575061053182611193565b5b9050919050565b60605f805461054790612fab565b80601f016020809104026020016040519081016040528092919081815260200182805461057390612fab565b80156105be5780601f10610595576101008083540402835291602001916105be565b820191905f5260205f20905b8154815290600101906020018083116105a157829003601f168201915b5050505050905090565b5f6105d2826111fc565b506105dc82611282565b9050919050565b6105f582826105f06112bb565b6112c2565b5050565b5f73ffffffffffffffffffffffffffffffffffffffff168273ffffffffffffffffffffffffffffffffffffffff1603610669575f6040517f64a0ae92000000000000000000000000000000000000000000000000000000008152600401610660919061298e565b60405180910390fd5b5f61067c83836106776112bb565b6112d4565b90508373ffffffffffffffffffffffffffffffffffffffff168173ffffffffffffffffffffffffffffffffffffffff16146106f2578382826040517f64283d7b0000000000000000000000000000000000000000000000000000000081526004016106e993929190612fdb565b60405180910390fd5b50505050565b6107006114df565b8060075f6101000a81548173ffffffffffffffffffffffffffffffffffffffff021916908373ffffffffffffffffffffffffffffffffffffffff16021790555050565b61075d83838360405180602001604052805f81525061092b565b505050565b6009602052805f5260405f205f915090508060020154905081565b5f610787826111fc565b9050919050565b5f5f73ffffffffffffffffffffffffffffffffffffffff168273ffffffffffffffffffffffffffffffffffffffff16036107ff575f6040517f89c62b640000000000000000000000000000000000000000000000000000000081526004016107f6919061298e565b60405180910390fd5b60035f8373ffffffffffffffffffffffffffffffffffffffff1673ffffffffffffffffffffffffffffffffffffffff1681526020019081526020015f20549050919050565b61084c6114df565b6108555f611566565b565b60085481565b5f60065f9054906101000a900473ffffffffffffffffffffffffffffffffffffffff16905090565b60606001805461089490612fab565b80601f01602080910402602001604051908101604052809291908181526020018280546108c090612fab565b801561090b5780601f106108e25761010080835404028352916020019161090b565b820191905f5260205f20905b8154815290600101906020018083116108ee57829003601f168201915b5050505050905090565b6109276109206112bb565b8383611629565b5050565b6109368484846105f9565b61094a6109416112bb565b85858585611792565b50505050565b606061095b826111fc565b505f60095f8481526020019081526020015f206040518060600160405290815f82018054806020026020016040519081016040528092919081815260200182805480156109c557602002820191905f5260205f20905b8154815260200190600101908083116109b1575b5050505050815260200160018201805480602002602001604051908101604052809291908181526020018280548015610a1b57602002820191905f5260205f20905b815481526020019060010190808311610a07575b5050505050815260200160028201548152505090505f610a42825f0151836020015161193e565b90505f610a4e826119fe565b604051602001610a5e9190613094565b60405160208183030381529060405290505f610a7986611a2b565b610a8a855f01518660200151611af5565b83610a98875f015151611a2b565b610aad610aa88960200151611bc9565b611a2b565b610aba8960400151611a2b565b604051602001610acf969594939291906134eb565b6040516020818303038152906040529050610ae9816119fe565b604051602001610af9919061361b565b604051602081830303815290604052945050505050919050565b60075f9054906101000a900473ffffffffffffffffffffffffffffffffffffffff1681565b5f60055f8473ffffffffffffffffffffffffffffffffffffffff1673ffffffffffffffffffffffffffffffffffffffff1681526020019081526020015f205f8373ffffffffffffffffffffffffffffffffffffffff1673ffffffffffffffffffffffffffffffffffffffff1681526020019081526020015f205f9054906101000a900460ff16905092915050565b5f828290508585905014610c06576040517f9d89020a00000000000000000000000000000000000000000000000000000000815260040160405180910390fd5b5f8585905003610c42576040517f7b1bbd5000000000000000000000000000000000000000000000000000000000815260040160405180910390fd5b5f8585905067ffffffffffffffff811115610c6057610c5f612b22565b5b604051908082528060200260200182016040528015610c8e5781602001602082028036833780820191505090505b5090505f5f90505b86869050811015610cfc5733828281518110610cb557610cb461363c565b5b602002602001019073ffffffffffffffffffffffffffffffffffffffff16908173ffffffffffffffffffffffffffffffffffffffff16815250508080600101915050610c96565b505f60075f9054906101000a900473ffffffffffffffffffffffffffffffffffffffff1673ffffffffffffffffffffffffffffffffffffffff16634e1273f48389896040518463ffffffff1660e01b8152600401610d5c93929190613798565b5f60405180830381865afa158015610d76573d5f5f3e3d5ffd5b505050506040513d5f823e3d601f19601f82011682018060405250810190610d9e91906138a3565b90505f5f90505b8151811015610e2857858582818110610dc157610dc061363c565b5b90506020020135828281518110610ddb57610dda61363c565b5b60200260200101511015610e1b576040517f9491eb8b00000000000000000000000000000000000000000000000000000000815260040160405180910390fd5b8080600101915050610da5565b5060075f9054906101000a900473ffffffffffffffffffffffffffffffffffffffff1673ffffffffffffffffffffffffffffffffffffffff16633db0f8ab33898989896040518663ffffffff1660e01b8152600401610e8b9594939291906138ea565b5f604051808303815f87803b158015610ea2575f5ffd5b505af1158015610eb4573d5f5f3e3d5ffd5b505050505f60085f815480929190610ecb9061395e565b919050559050610edb3382611c1b565b60405180606001604052808989808060200260200160405190810160405280939291908181526020018383602002808284375f81840152601f19601f8201169050808301925050505050505081526020018787808060200260200160405190810160405280939291908181526020018383602002808284375f81840152601f19601f8201169050808301925050505050505081526020014281525060095f8381526020019081526020015f205f820151815f019080519060200190610fa1929190612717565b506020820151816001019080519060200190610fbe929190612717565b5060408201518160020155905050803373ffffffffffffffffffffffffffffffffffffffff167ffb2a3f2d09580725582fe73f7d0bc231f735c78f92082de9b2c462c6af03cc818a8a8a8a60405161101994939291906139a5565b60405180910390a3809350505050949350505050565b6110376114df565b5f73ffffffffffffffffffffffffffffffffffffffff168173ffffffffffffffffffffffffffffffffffffffff16036110a7575f6040517f1e4fbdf700000000000000000000000000000000000000000000000000000000815260040161109e919061298e565b60405180910390fd5b6110b081611566565b50565b6110bb612762565b60095f8381526020019081526020015f206040518060600160405290815f820180548060200260200160405190810160405280929190818152602001828054801561112357602002820191905f5260205f20905b81548152602001906001019080831161110f575b505050505081526020016001820180548060200260200160405190810160405280929190818152602001828054801561117957602002820191905f5260205f20905b815481526020019060010190808311611165575b505050505081526020016002820154815250509050919050565b5f7f01ffc9a7000000000000000000000000000000000000000000000000000000007bffffffffffffffffffffffffffffffffffffffffffffffffffffffff1916827bffffffffffffffffffffffffffffffffffffffffffffffffffffffff1916149050919050565b5f5f61120783611d0e565b90505f73ffffffffffffffffffffffffffffffffffffffff168173ffffffffffffffffffffffffffffffffffffffff160361127957826040517f7e2732890000000000000000000000000000000000000000000000000000000081526004016112709190612a99565b60405180910390fd5b80915050919050565b5f60045f8381526020019081526020015f205f9054906101000a900473ffffffffffffffffffffffffffffffffffffffff169050919050565b5f33905090565b6112cf8383836001611d47565b505050565b5f5f6112df84611d0e565b90505f73ffffffffffffffffffffffffffffffffffffffff168373ffffffffffffffffffffffffffffffffffffffff16146113205761131f818486611f06565b5b5f73ffffffffffffffffffffffffffffffffffffffff168173ffffffffffffffffffffffffffffffffffffffff16146113ab5761135f5f855f5f611d47565b600160035f8373ffffffffffffffffffffffffffffffffffffffff1673ffffffffffffffffffffffffffffffffffffffff1681526020019081526020015f205f82825403925050819055505b5f73ffffffffffffffffffffffffffffffffffffffff168573ffffffffffffffffffffffffffffffffffffffff161461142a57600160035f8773ffffffffffffffffffffffffffffffffffffffff1673ffffffffffffffffffffffffffffffffffffffff1681526020019081526020015f205f82825401925050819055505b8460025f8681526020019081526020015f205f6101000a81548173ffffffffffffffffffffffffffffffffffffffff021916908373ffffffffffffffffffffffffffffffffffffffff160217905550838573ffffffffffffffffffffffffffffffffffffffff168273ffffffffffffffffffffffffffffffffffffffff167fddf252ad1be2c89b69c2b068fc378daa952ba7f163c4a11628f55a4df523b3ef60405160405180910390a4809150509392505050565b6114e76112bb565b73ffffffffffffffffffffffffffffffffffffffff1661150561085d565b73ffffffffffffffffffffffffffffffffffffffff1614611564576115286112bb565b6040517f118cdaa700000000000000000000000000000000000000000000000000000000815260040161155b919061298e565b60405180910390fd5b565b5f60065f9054906101000a900473ffffffffffffffffffffffffffffffffffffffff1690508160065f6101000a81548173ffffffffffffffffffffffffffffffffffffffff021916908373ffffffffffffffffffffffffffffffffffffffff1602179055508173ffffffffffffffffffffffffffffffffffffffff168173ffffffffffffffffffffffffffffffffffffffff167f8be0079c531659141344cd1fd0a4f28419497f9722a3daafe3b4186f6b6457e060405160405180910390a35050565b5f73ffffffffffffffffffffffffffffffffffffffff168273ffffffffffffffffffffffffffffffffffffffff160361169957816040517f5b08ba18000000000000000000000000000000000000000000000000000000008152600401611690919061298e565b60405180910390fd5b8060055f8573ffffffffffffffffffffffffffffffffffffffff1673ffffffffffffffffffffffffffffffffffffffff1681526020019081526020015f205f8473ffffffffffffffffffffffffffffffffffffffff1673ffffffffffffffffffffffffffffffffffffffff1681526020019081526020015f205f6101000a81548160ff0219169083151502179055508173ffffffffffffffffffffffffffffffffffffffff168373ffffffffffffffffffffffffffffffffffffffff167f17307eab39ab6107e8899845ad3d59bd9653f200f220920489ca2b5937696c31836040516117859190612848565b60405180910390a3505050565b5f8373ffffffffffffffffffffffffffffffffffffffff163b1115611937578273ffffffffffffffffffffffffffffffffffffffff1663150b7a02868685856040518563ffffffff1660e01b81526004016117f09493929190613a30565b6020604051808303815f875af192505050801561182b57506040513d601f19601f820116820180604052508101906118289190613a8e565b60015b6118ac573d805f8114611859576040519150601f19603f3d011682016040523d82523d5f602084013e61185e565b606091505b505f8151036118a457836040517f64a0ae9200000000000000000000000000000000000000000000000000000000815260040161189b919061298e565b60405180910390fd5b805181602001fd5b63150b7a0260e01b7bffffffffffffffffffffffffffffffffffffffffffffffffffffffff1916817bffffffffffffffffffffffffffffffffffffffffffffffffffffffff19161461193557836040517f64a0ae9200000000000000000000000000000000000000000000000000000000815260040161192c919061298e565b60405180910390fd5b505b5050505050565b60605f60405180602001604052805f81525090505f5f90505b84518110156119d4575f6119a08683815181106119775761197661363c565b5b60200260200101518684815181106119925761199161363c565b5b602002602001015184611fc9565b905082816040516020016119b5929190613ab9565b6040516020818303038152906040529250508080600101915050611957565b50806040516020016119e69190613d0c565b60405160208183030381529060405291505092915050565b6060611a24826040518060600160405280604081526020016148ac604091396001612268565b9050919050565b60605f6001611a39846123f7565b0190505f8167ffffffffffffffff811115611a5757611a56612b22565b5b6040519080825280601f01601f191660200182016040528015611a895781602001600182028036833780820191505090505b5090505f82602001820190505b600115611aea578080600190039150507f3031323334353637383961626364656600000000000000000000000000000000600a86061a8153600a8581611adf57611ade613d59565b5b0494505f8503611a96575b819350505050919050565b60605f60405180602001604052805f81525090505f5f90505b8451811015611bbe575f611b3b868381518110611b2e57611b2d61363c565b5b6020026020010151612548565b90505f821115611b685782604051602001611b569190613dd0565b60405160208183030381529060405292505b82611b8c868481518110611b7f57611b7e61363c565b5b6020026020010151611a2b565b82604051602001611b9f93929190613e3b565b6040516020818303038152906040529250508080600101915050611b0e565b508091505092915050565b5f5f5f90505f5f90505b8351811015611c1157838181518110611bef57611bee61363c565b5b602002602001015182611c029190613e76565b91508080600101915050611bd3565b5080915050919050565b5f73ffffffffffffffffffffffffffffffffffffffff168273ffffffffffffffffffffffffffffffffffffffff1603611c8b575f6040517f64a0ae92000000000000000000000000000000000000000000000000000000008152600401611c82919061298e565b60405180910390fd5b5f611c9783835f6112d4565b90505f73ffffffffffffffffffffffffffffffffffffffff168173ffffffffffffffffffffffffffffffffffffffff1614611d09575f6040517f73c6ac6e000000000000000000000000000000000000000000000000000000008152600401611d00919061298e565b60405180910390fd5b505050565b5f60025f8381526020019081526020015f205f9054906101000a900473ffffffffffffffffffffffffffffffffffffffff169050919050565b8080611d7f57505f73ffffffffffffffffffffffffffffffffffffffff168273ffffffffffffffffffffffffffffffffffffffff1614155b15611eb1575f611d8e846111fc565b90505f73ffffffffffffffffffffffffffffffffffffffff168373ffffffffffffffffffffffffffffffffffffffff1614158015611df857508273ffffffffffffffffffffffffffffffffffffffff168173ffffffffffffffffffffffffffffffffffffffff1614155b8015611e0b5750611e098184610b38565b155b15611e4d57826040517fa9fbf51f000000000000000000000000000000000000000000000000000000008152600401611e44919061298e565b60405180910390fd5b8115611eaf57838573ffffffffffffffffffffffffffffffffffffffff168273ffffffffffffffffffffffffffffffffffffffff167f8c5be1e5ebec7d5bd14f71427d1e84f3dd0314c0f7b2291e5b200ac8c7c3b92560405160405180910390a45b505b8360045f8581526020019081526020015f205f6101000a81548173ffffffffffffffffffffffffffffffffffffffff021916908373ffffffffffffffffffffffffffffffffffffffff16021790555050505050565b611f11838383612657565b611fc4575f73ffffffffffffffffffffffffffffffffffffffff168373ffffffffffffffffffffffffffffffffffffffff1603611f8557806040517f7e273289000000000000000000000000000000000000000000000000000000008152600401611f7c9190612a99565b60405180910390fd5b81816040517f177e802f000000000000000000000000000000000000000000000000000000008152600401611fbb929190613ea9565b60405180910390fd5b505050565b60605f5f600284611fda9190613ed0565b14611fe65760b4611fe9565b60785b60ff1690505f600f84611ffc9190613f00565b60826120089190613e76565b90505f6005866120189190613f00565b600a6120249190613e76565b9050600187036120a05761203783611a2b565b61204083611a2b565b61204983611a2b565b61205e6005876120599190613f41565b611a2b565b61207360058761206e9190613f41565b611a2b565b60405160200161208795949392919061410c565b6040516020818303038152906040529350505050612261565b60028703612143576120b183611a2b565b6120c582846120c09190613f41565b611a2b565b6120d983866120d49190613f41565b611a2b565b6120ed84866120e89190613e76565b611a2b565b61210185886120fc9190613e76565b611a2b565b61211586886121109190613e76565b611a2b565b60405160200161212a969594939291906142f1565b6040516020818303038152906040529350505050612261565b6003870361221f5761215f818461215a9190613f41565b611a2b565b61217f60028361216f91906143a0565b8461217a9190613f41565b611a2b565b61219460028461218f9190613f00565b611a2b565b61219d84611a2b565b6121bd600586896121ae9190613f41565b6121b89190613e76565b611a2b565b6121c687611a2b565b6121e66005888b6121d79190613e76565b6121e19190613f41565b611a2b565b6121ef89611a2b565b604051602001612206989796959493929190614700565b6040516020818303038152906040529350505050612261565b61222883611a2b565b61223183611a2b565b61223a83611a2b565b60405160200161224c9392919061484f565b60405160208183030381529060405293505050505b9392505050565b60605f8451036122885760405180602001604052805f81525090506123f0565b5f826122b95760036002865160046122a09190613f00565b6122aa9190613e76565b6122b491906143a0565b6122e0565b6003600286516122c99190613e76565b6122d391906143a0565b60046122df9190613f00565b5b90505f8167ffffffffffffffff8111156122fd576122fc612b22565b5b6040519080825280601f01601f19166020018201604052801561232f5781602001600182028036833780820191505090505b509050600185016020820187885189016020810180515f82525b828410156123a4576003840193508351603f8160121c168701518653600186019550603f81600c1c168701518653600186019550603f8160061c168701518653600186019550603f8116870151865360018601955050612349565b80825289156123e45760038c5106600181146123c757600281146123da576123e2565b603d6001870353603d60028703536123e2565b603d60018703535b505b50505050505080925050505b9392505050565b5f5f5f90507a184f03e93ff9f4daa797ed6e38ed64bf6a1f0100000000000000008310612453577a184f03e93ff9f4daa797ed6e38ed64bf6a1f010000000000000000838161244957612448613d59565b5b0492506040810190505b6d04ee2d6d415b85acef81000000008310612490576d04ee2d6d415b85acef8100000000838161248657612485613d59565b5b0492506020810190505b662386f26fc1000083106124bf57662386f26fc1000083816124b5576124b4613d59565b5b0492506010810190505b6305f5e10083106124e8576305f5e10083816124de576124dd613d59565b5b0492506008810190505b612710831061250d57612710838161250357612502613d59565b5b0492506004810190505b60648310612530576064838161252657612525613d59565b5b0492506002810190505b600a831061253f576001810190505b80915050919050565b60606001820361258f576040518060400160405280600381526020017f45676700000000000000000000000000000000000000000000000000000000008152509050612652565b600282036125d4576040518060400160405280600681526020017f43686565736500000000000000000000000000000000000000000000000000008152509050612652565b60038203612619576040518060400160405280600581526020017f4261636f6e0000000000000000000000000000000000000000000000000000008152509050612652565b6040518060400160405280600781526020017f556e6b6e6f776e0000000000000000000000000000000000000000000000000081525090505b919050565b5f5f73ffffffffffffffffffffffffffffffffffffffff168373ffffffffffffffffffffffffffffffffffffffff161415801561270e57508273ffffffffffffffffffffffffffffffffffffffff168473ffffffffffffffffffffffffffffffffffffffff1614806126cf57506126ce8484610b38565b5b8061270d57508273ffffffffffffffffffffffffffffffffffffffff166126f583611282565b73ffffffffffffffffffffffffffffffffffffffff16145b5b90509392505050565b828054828255905f5260205f20908101928215612751579160200282015b82811115612750578251825591602001919060010190612735565b5b50905061275e9190612782565b5090565b604051806060016040528060608152602001606081526020015f81525090565b5b80821115612799575f815f905550600101612783565b5090565b5f604051905090565b5f5ffd5b5f5ffd5b5f7fffffffff0000000000000000000000000000000000000000000000000000000082169050919050565b6127e2816127ae565b81146127ec575f5ffd5b50565b5f813590506127fd816127d9565b92915050565b5f60208284031215612818576128176127a6565b5b5f612825848285016127ef565b91505092915050565b5f8115159050919050565b6128428161282e565b82525050565b5f60208201905061285b5f830184612839565b92915050565b5f81519050919050565b5f82825260208201905092915050565b8281835e5f83830152505050565b5f601f19601f8301169050919050565b5f6128a382612861565b6128ad818561286b565b93506128bd81856020860161287b565b6128c681612889565b840191505092915050565b5f6020820190508181035f8301526128e98184612899565b905092915050565b5f819050919050565b612903816128f1565b811461290d575f5ffd5b50565b5f8135905061291e816128fa565b92915050565b5f60208284031215612939576129386127a6565b5b5f61294684828501612910565b91505092915050565b5f73ffffffffffffffffffffffffffffffffffffffff82169050919050565b5f6129788261294f565b9050919050565b6129888161296e565b82525050565b5f6020820190506129a15f83018461297f565b92915050565b6129b08161296e565b81146129ba575f5ffd5b50565b5f813590506129cb816129a7565b92915050565b5f5f604083850312156129e7576129e66127a6565b5b5f6129f4858286016129bd565b9250506020612a0585828601612910565b9150509250929050565b5f5f5f60608486031215612a2657612a256127a6565b5b5f612a33868287016129bd565b9350506020612a44868287016129bd565b9250506040612a5586828701612910565b9150509250925092565b5f60208284031215612a7457612a736127a6565b5b5f612a81848285016129bd565b91505092915050565b612a93816128f1565b82525050565b5f602082019050612aac5f830184612a8a565b92915050565b612abb8161282e565b8114612ac5575f5ffd5b50565b5f81359050612ad681612ab2565b92915050565b5f5f60408385031215612af257612af16127a6565b5b5f612aff858286016129bd565b9250506020612b1085828601612ac8565b9150509250929050565b5f5ffd5b5f5ffd5b7f4e487b71000000000000000000000000000000000000000000000000000000005f52604160045260245ffd5b612b5882612889565b810181811067ffffffffffffffff82111715612b7757612b76612b22565b5b80604052505050565b5f612b8961279d565b9050612b958282612b4f565b919050565b5f67ffffffffffffffff821115612bb457612bb3612b22565b5b612bbd82612889565b9050602081019050919050565b828183375f83830152505050565b5f612bea612be584612b9a565b612b80565b905082815260208101848484011115612c0657612c05612b1e565b5b612c11848285612bca565b509392505050565b5f82601f830112612c2d57612c2c612b1a565b5b8135612c3d848260208601612bd8565b91505092915050565b5f5f5f5f60808587031215612c5e57612c5d6127a6565b5b5f612c6b878288016129bd565b9450506020612c7c878288016129bd565b9350506040612c8d87828801612910565b925050606085013567ffffffffffffffff811115612cae57612cad6127aa565b5b612cba87828801612c19565b91505092959194509250565b5f819050919050565b5f612ce9612ce4612cdf8461294f565b612cc6565b61294f565b9050919050565b5f612cfa82612ccf565b9050919050565b5f612d0b82612cf0565b9050919050565b612d1b81612d01565b82525050565b5f602082019050612d345f830184612d12565b92915050565b5f5f60408385031215612d5057612d4f6127a6565b5b5f612d5d858286016129bd565b9250506020612d6e858286016129bd565b9150509250929050565b5f5ffd5b5f5ffd5b5f5f83601f840112612d9557612d94612b1a565b5b8235905067ffffffffffffffff811115612db257612db1612d78565b5b602083019150836020820283011115612dce57612dcd612d7c565b5b9250929050565b5f5f5f5f60408587031215612ded57612dec6127a6565b5b5f85013567ffffffffffffffff811115612e0a57612e096127aa565b5b612e1687828801612d80565b9450945050602085013567ffffffffffffffff811115612e3957612e386127aa565b5b612e4587828801612d80565b925092505092959194509250565b5f81519050919050565b5f82825260208201905092915050565b5f819050602082019050919050565b612e85816128f1565b82525050565b5f612e968383612e7c565b60208301905092915050565b5f602082019050919050565b5f612eb882612e53565b612ec28185612e5d565b9350612ecd83612e6d565b805f5b83811015612efd578151612ee48882612e8b565b9750612eef83612ea2565b925050600181019050612ed0565b5085935050505092915050565b5f606083015f8301518482035f860152612f248282612eae565b91505060208301518482036020860152612f3e8282612eae565b9150506040830151612f536040860182612e7c565b508091505092915050565b5f6020820190508181035f830152612f768184612f0a565b905092915050565b7f4e487b71000000000000000000000000000000000000000000000000000000005f52602260045260245ffd5b5f6002820490506001821680612fc257607f821691505b602082108103612fd557612fd4612f7e565b5b50919050565b5f606082019050612fee5f83018661297f565b612ffb6020830185612a8a565b613008604083018461297f565b949350505050565b5f81905092915050565b7f646174613a696d6167652f7376672b786d6c3b6261736536342c0000000000005f82015250565b5f61304e601a83613010565b91506130598261301a565b601a82019050919050565b5f61306e82612861565b6130788185613010565b935061308881856020860161287b565b80840191505092915050565b5f61309e82613042565b91506130aa8284613064565b915081905092915050565b7f7b226e616d65223a2022446973682023000000000000000000000000000000005f82015250565b5f6130e9601083613010565b91506130f4826130b5565b601082019050919050565b7f222c20226465736372697074696f6e223a2022412064656c6963696f757320645f8201527f697368206d616465207769746820000000000000000000000000000000000000602082015250565b5f613159602e83613010565b9150613164826130ff565b602e82019050919050565b7f20696e2074686520436861696e5363686f6f6c204f6e2d436861696e204b69745f8201527f6368656e207475746f7269616c2e222c00000000000000000000000000000000602082015250565b5f6131c9603083613010565b91506131d48261316f565b603082019050919050565b7f2022696d616765223a20220000000000000000000000000000000000000000005f82015250565b5f613213600b83613010565b915061321e826131df565b600b82019050919050565b7f222c0000000000000000000000000000000000000000000000000000000000005f82015250565b5f61325d600283613010565b915061326882613229565b600282019050919050565b7f202261747472696275746573223a205b000000000000000000000000000000005f82015250565b5f6132a7601083613010565b91506132b282613273565b601082019050919050565b7f7b2274726169745f74797065223a2022496e6772656469656e7420436f756e745f8201527f222c202276616c7565223a200000000000000000000000000000000000000000602082015250565b5f613317602c83613010565b9150613322826132bd565b602c82019050919050565b7f7d2c0000000000000000000000000000000000000000000000000000000000005f82015250565b5f613361600283613010565b915061336c8261332d565b600282019050919050565b7f7b2274726169745f74797065223a2022546f74616c205175616e74697479222c5f8201527f202276616c7565223a2000000000000000000000000000000000000000000000602082015250565b5f6133d1602a83613010565b91506133dc82613377565b602a82019050919050565b7f7b2274726169745f74797065223a2022436f6f6b2054696d65222c202276616c5f8201527f7565223a20000000000000000000000000000000000000000000000000000000602082015250565b5f613441602583613010565b915061344c826133e7565b602582019050919050565b7f7d000000000000000000000000000000000000000000000000000000000000005f82015250565b5f61348b600183613010565b915061349682613457565b600182019050919050565b7f5d7d0000000000000000000000000000000000000000000000000000000000005f82015250565b5f6134d5600283613010565b91506134e0826134a1565b600282019050919050565b5f6134f5826130dd565b91506135018289613064565b915061350c8261314d565b91506135188288613064565b9150613523826131bd565b915061352e82613207565b915061353a8287613064565b915061354582613251565b91506135508261329b565b915061355b8261330b565b91506135678286613064565b915061357282613355565b915061357d826133c5565b91506135898285613064565b915061359482613355565b915061359f82613435565b91506135ab8284613064565b91506135b68261347f565b91506135c1826134c9565b9150819050979650505050505050565b7f646174613a6170706c69636174696f6e2f6a736f6e3b6261736536342c0000005f82015250565b5f613605601d83613010565b9150613610826135d1565b601d82019050919050565b5f613625826135f9565b91506136318284613064565b915081905092915050565b7f4e487b71000000000000000000000000000000000000000000000000000000005f52603260045260245ffd5b5f81519050919050565b5f82825260208201905092915050565b5f819050602082019050919050565b61369b8161296e565b82525050565b5f6136ac8383613692565b60208301905092915050565b5f602082019050919050565b5f6136ce82613669565b6136d88185613673565b93506136e383613683565b805f5b838110156137135781516136fa88826136a1565b9750613705836136b8565b9250506001810190506136e6565b5085935050505092915050565b5f82825260208201905092915050565b5f5ffd5b82818337505050565b5f6137488385613720565b93507f07ffffffffffffffffffffffffffffffffffffffffffffffffffffffffffffff83111561377b5761377a613730565b5b60208302925061378c838584613734565b82840190509392505050565b5f6040820190508181035f8301526137b081866136c4565b905081810360208301526137c581848661373d565b9050949350505050565b5f67ffffffffffffffff8211156137e9576137e8612b22565b5b602082029050602081019050919050565b5f81519050613808816128fa565b92915050565b5f61382061381b846137cf565b612b80565b9050808382526020820190506020840283018581111561384357613842612d7c565b5b835b8181101561386c578061385888826137fa565b845260208401935050602081019050613845565b5050509392505050565b5f82601f83011261388a57613889612b1a565b5b815161389a84826020860161380e565b91505092915050565b5f602082840312156138b8576138b76127a6565b5b5f82015167ffffffffffffffff8111156138d5576138d46127aa565b5b6138e184828501613876565b91505092915050565b5f6060820190506138fd5f83018861297f565b818103602083015261391081868861373d565b9050818103604083015261392581848661373d565b90509695505050505050565b7f4e487b71000000000000000000000000000000000000000000000000000000005f52601160045260245ffd5b5f613968826128f1565b91507fffffffffffffffffffffffffffffffffffffffffffffffffffffffffffffffff820361399a57613999613931565b5b600182019050919050565b5f6040820190508181035f8301526139be81868861373d565b905081810360208301526139d381848661373d565b905095945050505050565b5f81519050919050565b5f82825260208201905092915050565b5f613a02826139de565b613a0c81856139e8565b9350613a1c81856020860161287b565b613a2581612889565b840191505092915050565b5f608082019050613a435f83018761297f565b613a50602083018661297f565b613a5d6040830185612a8a565b8181036060830152613a6f81846139f8565b905095945050505050565b5f81519050613a88816127d9565b92915050565b5f60208284031215613aa357613aa26127a6565b5b5f613ab084828501613a7a565b91505092915050565b5f613ac48285613064565b9150613ad08284613064565b91508190509392505050565b7f3c7376672076696577426f783d2230203020333030203330302220786d6c6e735f8201527f3d22687474703a2f2f7777772e77332e6f72672f323030302f737667223e0000602082015250565b5f613b36603e83613010565b9150613b4182613adc565b603e82019050919050565b7f3c726563742077696474683d2233303022206865696768743d223330302220665f8201527f696c6c3d2223666566376564222f3e0000000000000000000000000000000000602082015250565b5f613ba6602f83613010565b9150613bb182613b4c565b602f82019050919050565b7f3c636972636c652063783d22313530222063793d223135302220723d223132305f8201527f222066696c6c3d222366666666666622207374726f6b653d222365356537656260208201527f22207374726f6b652d77696474683d2234222f3e000000000000000000000000604082015250565b5f613c3c605483613010565b9150613c4782613bbc565b605482019050919050565b7f3c636972636c652063783d22313530222063793d223135302220723d223130305f8201527f222066696c6c3d2223663966616662222f3e0000000000000000000000000000602082015250565b5f613cac603283613010565b9150613cb782613c52565b603282019050919050565b7f3c2f7376673e00000000000000000000000000000000000000000000000000005f82015250565b5f613cf6600683613010565b9150613d0182613cc2565b600682019050919050565b5f613d1682613b2a565b9150613d2182613b9a565b9150613d2c82613c30565b9150613d3782613ca0565b9150613d438284613064565b9150613d4e82613cea565b915081905092915050565b7f4e487b71000000000000000000000000000000000000000000000000000000005f52601260045260245ffd5b7f2c200000000000000000000000000000000000000000000000000000000000005f82015250565b5f613dba600283613010565b9150613dc582613d86565b600282019050919050565b5f613ddb8284613064565b9150613de682613dae565b915081905092915050565b7f20000000000000000000000000000000000000000000000000000000000000005f82015250565b5f613e25600183613010565b9150613e3082613df1565b600182019050919050565b5f613e468286613064565b9150613e528285613064565b9150613e5d82613e19565b9150613e698284613064565b9150819050949350505050565b5f613e80826128f1565b9150613e8b836128f1565b9250828201905080821115613ea357613ea2613931565b5b92915050565b5f604082019050613ebc5f83018561297f565b613ec96020830184612a8a565b9392505050565b5f613eda826128f1565b9150613ee5836128f1565b925082613ef557613ef4613d59565b5b828206905092915050565b5f613f0a826128f1565b9150613f15836128f1565b9250828202613f23816128f1565b91508282048414831517613f3a57613f39613931565b5b5092915050565b5f613f4b826128f1565b9150613f56836128f1565b9250828203905081811115613f6e57613f6d613931565b5b92915050565b7f3c636972636c652063783d2200000000000000000000000000000000000000005f82015250565b5f613fa8600c83613010565b9150613fb382613f74565b600c82019050919050565b7f222063793d2200000000000000000000000000000000000000000000000000005f82015250565b5f613ff2600683613010565b9150613ffd82613fbe565b600682019050919050565b7f2220723d220000000000000000000000000000000000000000000000000000005f82015250565b5f61403c600583613010565b915061404782614008565b600582019050919050565b7f222066696c6c3d222366656633633722207374726f6b653d22236635396530625f8201527f22207374726f6b652d77696474683d2232222f3e000000000000000000000000602082015250565b5f6140ac603483613010565b91506140b782614052565b603482019050919050565b7f2220723d2233222066696c6c3d2223666666666666222f3e00000000000000005f82015250565b5f6140f6601883613010565b9150614101826140c2565b601882019050919050565b5f61411682613f9c565b91506141228288613064565b915061412d82613fe6565b91506141398287613064565b915061414482614030565b91506141508286613064565b915061415b826140a0565b915061416682613f9c565b91506141728285613064565b915061417d82613fe6565b91506141898284613064565b9150614194826140ea565b91508190509695505050505050565b7f3c706f6c79676f6e20706f696e74733d220000000000000000000000000000005f82015250565b5f6141d7601183613010565b91506141e2826141a3565b601182019050919050565b7f2c000000000000000000000000000000000000000000000000000000000000005f82015250565b5f614221600183613010565b915061422c826141ed565b600182019050919050565b7f22000000000000000000000000000000000000000000000000000000000000005f82015250565b5f61426b600183613010565b915061427682614237565b600182019050919050565b7f2066696c6c3d222366656437616122207374726f6b653d2223656135383063225f8201527f207374726f6b652d77696474683d2232222f3e00000000000000000000000000602082015250565b5f6142db603383613010565b91506142e682614281565b603382019050919050565b5f6142fb826141cb565b91506143078289613064565b915061431282614215565b915061431e8288613064565b915061432982613e19565b91506143358287613064565b915061434082614215565b915061434c8286613064565b915061435782613e19565b91506143638285613064565b915061436e82614215565b915061437a8284613064565b91506143858261425f565b9150614390826142cf565b9150819050979650505050505050565b5f6143aa826128f1565b91506143b5836128f1565b9250826143c5576143c4613d59565b5b828204905092915050565b7f3c7265637420783d2200000000000000000000000000000000000000000000005f82015250565b5f614404600983613010565b915061440f826143d0565b600982019050919050565b7f2220793d220000000000000000000000000000000000000000000000000000005f82015250565b5f61444e600583613010565b91506144598261441a565b600582019050919050565b7f222077696474683d2200000000000000000000000000000000000000000000005f82015250565b5f614498600983613010565b91506144a382614464565b600982019050919050565b7f22206865696768743d22000000000000000000000000000000000000000000005f82015250565b5f6144e2600a83613010565b91506144ed826144ae565b600a82019050919050565b7f222066696c6c3d222366656361636122207374726f6b653d22236463323632365f8201527f22207374726f6b652d77696474683d2232222072783d2235222f3e0000000000602082015250565b5f614552603b83613010565b915061455d826144f8565b603b82019050919050565b7f3c6c696e652078313d22000000000000000000000000000000000000000000005f82015250565b5f61459c600a83613010565b91506145a782614568565b600a82019050919050565b7f222079313d2200000000000000000000000000000000000000000000000000005f82015250565b5f6145e6600683613010565b91506145f1826145b2565b600682019050919050565b7f222078323d2200000000000000000000000000000000000000000000000000005f82015250565b5f614630600683613010565b915061463b826145fc565b600682019050919050565b7f222079323d2200000000000000000000000000000000000000000000000000005f82015250565b5f61467a600683613010565b915061468582614646565b600682019050919050565b7f22207374726f6b653d222337663164316422207374726f6b652d77696474683d5f8201527f2231222f3e000000000000000000000000000000000000000000000000000000602082015250565b5f6146ea602583613010565b91506146f582614690565b602582019050919050565b5f61470a826143f8565b9150614716828b613064565b915061472182614442565b915061472d828a613064565b91506147388261448c565b91506147448289613064565b915061474f826144d6565b915061475b8288613064565b915061476682614546565b915061477182614590565b915061477d8287613064565b9150614788826145da565b91506147948286613064565b915061479f82614624565b91506147ab8285613064565b91506147b68261466e565b91506147c28284613064565b91506147cd826146de565b91508190509998505050505050505050565b7f222066696c6c3d222364316435646222207374726f6b653d22233662373238305f8201527f22207374726f6b652d77696474683d2232222f3e000000000000000000000000602082015250565b5f614839603483613010565b9150614844826147df565b603482019050919050565b5f61485982613f9c565b91506148658286613064565b915061487082613fe6565b915061487c8285613064565b915061488782614030565b91506148938284613064565b915061489e8261482d565b915081905094935050505056fe4142434445464748494a4b4c4d4e4f505152535455565758595a6162636465666768696a6b6c6d6e6f707172737475767778797a303132333435363738392b2fa2646970667358221220a397ee5e56901923417957991bbbaafaa045e6173aaf9f6b9c43800ce0ecf43364736f6c634300081e0033","linkReferences":{}},"methodIdentifiers":{"approve(address,uint256)":"095ea7b3","balanceOf(address)":"70a08231","cook(uint256[],uint256[])":"eddd8c56","getApproved(uint256)":"081812fc","getRecipe(uint256)":"f8d12a41","ingredients()":"d6da3d61","isApprovedForAll(address,address)":"e985e9c5","name()":"06fdde03","nextTokenId()":"75794a3c","owner()":"8da5cb5b","ownerOf(uint256)":"6352211e","recipes(uint256)":"443c227c","renounceOwnership()":"715018a6","safeTransferFrom(address,address,uint256)":"42842e0e","safeTransferFrom(address,address,uint256,bytes)":"b88d4fde","setApprovalForAll(address,bool)":"a22cb465","setIngredients(address)":"30fde574","supportsInterface(bytes4)":"01ffc9a7","symbol()":"95d89b41","tokenURI(uint256)":"c87b56dd","transferFrom(address,address,uint256)":"23b872dd","transferOwnership(address)":"f2fde38b"},"id":1}