{"abi":[{"type":"constructor","inputs":[],"stateMutability":"nonpayable"},{"type":"function","name":"FAUCET_AMOUNT","inputs":[],"outputs":[{"name":"","type":"uint256","internalType":"uint256"}],"stateMutability":"view"},{"type":"function","name":"FAUCET_COOLDOWN","inputs":[],"outputs":[{"name":"","type":"uint256","internalType":"uint256"}],"stateMutability":"view"},{"type":"function","name":"allowance","inputs":[{"name":"owner","type":"address","internalType":"address"},{"name":"spender","type":"address","internalType":"address"}],"outputs":[{"name":"","type":"uint256","internalType":"uint256"}],"stateMutability":"view"},{"type":"function","name":"approve","inputs":[{"name":"spender","type":"address","internalType":"address"},{"name":"value","type":"uint256","internalType":"uint256"}],"outputs":[{"name":"","type":"bool","internalType":"bool"}],"stateMutability":"nonpayable"},{"type":"function","name":"balanceOf","inputs":[{"name":"account","type":"address","internalType":"address"}],"outputs":[{"name":"","type":"uint256","internalType":"uint256"}],"stateMutability":"view"},{"type":"function","name":"canClaimFaucet","inputs":[{"name":"user","type":"address","internalType":"address"}],"outputs":[{"name":"","type":"bool","internalType":"bool"}],"stateMutability":"view"},{"type":"function","name":"decimals","inputs":[],"outputs":[{"name":"","type":"uint8","internalType":"uint8"}],"stateMutability":"view"},{"type":"function","name":"faucet","inputs":[],"outputs":[],"stateMutability":"nonpayable"},{"type":"function","name":"lastFaucetClaim","inputs":[{"name":"","type":"address","internalType":"address"}],"outputs":[{"name":"","type":"uint256","internalType":"uint256"}],"stateMutability":"view"},{"type":"function","name":"name","inputs":[],"outputs":[{"name":"","type":"string","internalType":"string"}],"stateMutability":"view"},{"type":"function","name":"symbol","inputs":[],"outputs":[{"name":"","type":"string","internalType":"string"}],"stateMutability":"view"},{"type":"function","name":"timeUntilNextClaim","inputs":[{"name":"user","type":"address","internalType":"address"}],"outputs":[{"name":"","type":"uint256","internalType":"uint256"}],"stateMutability":"view"},{"type":"function","name":"totalSupply","inputs":[],"outputs":[{"name":"","type":"uint256","internalType":"uint256"}],"stateMutability":"view"},{"type":"function","name":"transfer","inputs":[{"name":"to","type":"address","internalType":"address"},{"name":"value","type":"uint256","internalType":"uint256"}],"outputs":[{"name":"","type":"bool","internalType":"bool"}],"stateMutability":"nonpayable"},{"type":"function","name":"transferFrom","inputs":[{"name":"from","type":"address","internalType":"address"},{"name":"to","type":"address","internalType":"address"},{"name":"value","type":"uint256","internalType":"uint256"}],"outputs":[{"name":"","type":"bool","internalType":"bool"}],"stateMutability":"nonpayable"},{"type":"event","name":"Approval","inputs":[{"name":"owner","type":"address","indexed":true,"internalType":"address"},{"name":"spender","type":"address","indexed":true,"internalType":"address"},{"name":"value","type":"uint256","indexed":false,"internalType":"uint256"}],"anonymous":false},{"type":"event","name":"FaucetClaimed","inputs":[{"name":"user","type":"address","indexed":true,"internalType":"address"},{"name":"amount","type":"uint256","indexed":false,"internalType":"uint256"}],"anonymous":false},{"type":"event","name":"Transfer","inputs":[{"name":"from","type":"address","indexed":true,"internalType":"address"},{"name":"to","type":"address","indexed":true,"internalType":"address"},{"name":"value","type":"uint256","indexed":false,"internalType":"uint256"}],"anonymous":false},{"type":"error","name":"ERC20InsufficientAllowance","inputs":[{"name":"spender","type":"address","internalType":"address"},{"name":"allowance","type":"uint256","internalType":"uint256"},{"name":"needed","type":"uint256","internalType":"uint256"}]},{"type":"error","name":"ERC20InsufficientBalance","inputs":[{"name":"sender","type":"address","internalType":"address"},{"name":"balance","type":"uint256","internalType":"uint256"},{"name":"needed","type":"uint256","internalType":"uint256"}]},{"type":"error","name":"ERC20InvalidApprover","inputs":[{"name":"approver","type":"address","internalType":"address"}]},{"type":"error","name":"ERC20InvalidReceiver","inputs":[{"name":"receiver","type":"address","internalType":"address"}]},{"type":"error","name":"ERC20InvalidSender","inputs":[{"name":"sender","type":"address","internalType":"address"}]},{"type":"error","name":"ERC20InvalidSpender","inputs":[{"name":"spender","type":"address","internalType":"address"}]},{"type":"error","name":"FaucetCooldownActive","inputs":[{"name":"timeRemaining","type":"uint256","internalType":"uint256"}]}],"bytecode":{"object":"0x608060405234801561000f575f5ffd5b506040518060400160405280600c81526020017f4b69746368656e546f6b656e00000000000000000000000000000000000000008152506040518060400160405280600781526020017f4b49544348454e00000000000000000000000000000000000000000000000000815250816003908161008b91906102e0565b50806004908161009b91906102e0565b5050506103af565b5f81519050919050565b7f4e487b71000000000000000000000000000000000000000000000000000000005f52604160045260245ffd5b7f4e487b71000000000000000000000000000000000000000000000000000000005f52602260045260245ffd5b5f600282049050600182168061011e57607f821691505b602082108103610131576101306100da565b5b50919050565b5f819050815f5260205f209050919050565b5f6020601f8301049050919050565b5f82821b905092915050565b5f600883026101937fffffffffffffffffffffffffffffffffffffffffffffffffffffffffffffffff82610158565b61019d8683610158565b95508019841693508086168417925050509392505050565b5f819050919050565b5f819050919050565b5f6101e16101dc6101d7846101b5565b6101be565b6101b5565b9050919050565b5f819050919050565b6101fa836101c7565b61020e610206826101e8565b848454610164565b825550505050565b5f5f905090565b610225610216565b6102308184846101f1565b505050565b5b81811015610253576102485f8261021d565b600181019050610236565b5050565b601f8211156102985761026981610137565b61027284610149565b81016020851015610281578190505b61029561028d85610149565b830182610235565b50505b505050565b5f82821c905092915050565b5f6102b85f198460080261029d565b1980831691505092915050565b5f6102d083836102a9565b9150826002028217905092915050565b6102e9826100a3565b67ffffffffffffffff811115610302576103016100ad565b5b61030c8254610107565b610317828285610257565b5f60209050601f831160018114610348575f8415610336578287015190505b61034085826102c5565b8655506103a7565b601f19841661035686610137565b5f5b8281101561037d57848901518255600182019150602085019450602081019050610358565b8683101561039a5784890151610396601f8916826102a9565b8355505b6001600288020188555050505b505050505050565b611195806103bc5f395ff3fe608060405234801561000f575f5ffd5b50600436106100f3575f3560e01c8063766976401161009557806395d89b411161006457806395d89b41146102ad578063a9059cbb146102cb578063dd62ed3e146102fb578063de5f72fd1461032b576100f3565b806376697640146102115780637d1d5d191461022f5780638a8772051461024d57806392d82dbe1461027d576100f3565b806318160ddd116100d157806318160ddd1461017557806323b872dd14610193578063313ce567146101c357806370a08231146101e1576100f3565b806301d8a296146100f757806306fdde0314610127578063095ea7b314610145575b5f5ffd5b610111600480360381019061010c9190610dc9565b610335565b60405161011e9190610e0e565b60405180910390f35b61012f610348565b60405161013c9190610e97565b60405180910390f35b61015f600480360381019061015a9190610eea565b6103d8565b60405161016c9190610e0e565b60405180910390f35b61017d6103fa565b60405161018a9190610f37565b60405180910390f35b6101ad60048036038101906101a89190610f50565b610403565b6040516101ba9190610e0e565b60405180910390f35b6101cb610431565b6040516101d89190610fbb565b60405180910390f35b6101fb60048036038101906101f69190610dc9565b610439565b6040516102089190610f37565b60405180910390f35b61021961047e565b6040516102269190610f37565b60405180910390f35b61023761048b565b6040516102449190610f37565b60405180910390f35b61026760048036038101906102629190610dc9565b610492565b6040516102749190610f37565b60405180910390f35b61029760048036038101906102929190610dc9565b6104a7565b6040516102a49190610f37565b60405180910390f35b6102b5610535565b6040516102c29190610e97565b60405180910390f35b6102e560048036038101906102e09190610eea565b6105c5565b6040516102f29190610e0e565b60405180910390f35b61031560048036038101906103109190610fd4565b6105e7565b6040516103229190610f37565b60405180910390f35b610333610669565b005b5f5f610340836104a7565b149050919050565b6060600380546103579061103f565b80601f01602080910402602001604051908101604052809291908181526020018280546103839061103f565b80156103ce5780601f106103a5576101008083540402835291602001916103ce565b820191905f5260205f20905b8154815290600101906020018083116103b157829003601f168201915b5050505050905090565b5f5f6103e2610769565b90506103ef818585610770565b600191505092915050565b5f600254905090565b5f5f61040d610769565b905061041a858285610782565b610425858585610814565b60019150509392505050565b5f6012905090565b5f5f5f8373ffffffffffffffffffffffffffffffffffffffff1673ffffffffffffffffffffffffffffffffffffffff1681526020019081526020015f20549050919050565b68056bc75e2d6310000081565b6201518081565b6005602052805f5260405f205f915090505481565b5f5f60055f8473ffffffffffffffffffffffffffffffffffffffff1673ffffffffffffffffffffffffffffffffffffffff1681526020019081526020015f205490505f81036104f9575f915050610530565b5f8142610506919061109c565b905062015180811061051c575f92505050610530565b806201518061052b919061109c565b925050505b919050565b6060600480546105449061103f565b80601f01602080910402602001604051908101604052809291908181526020018280546105709061103f565b80156105bb5780601f10610592576101008083540402835291602001916105bb565b820191905f5260205f20905b81548152906001019060200180831161059e57829003601f168201915b5050505050905090565b5f5f6105cf610769565b90506105dc818585610814565b600191505092915050565b5f60015f8473ffffffffffffffffffffffffffffffffffffffff1673ffffffffffffffffffffffffffffffffffffffff1681526020019081526020015f205f8373ffffffffffffffffffffffffffffffffffffffff1673ffffffffffffffffffffffffffffffffffffffff1681526020019081526020015f2054905092915050565b5f610673336104a7565b90505f8111156106ba57806040517f9ad22e0f0000000000000000000000000000000000000000000000000000000081526004016106b19190610f37565b60405180910390fd5b4260055f3373ffffffffffffffffffffffffffffffffffffffff1673ffffffffffffffffffffffffffffffffffffffff1681526020019081526020015f208190555061070f3368056bc75e2d63100000610904565b3373ffffffffffffffffffffffffffffffffffffffff167f5d4f415c63cd8a5874d9d291cdd64cec37e5dc236d90d659c958d109d78074b368056bc75e2d6310000060405161075e9190610f37565b60405180910390a250565b5f33905090565b61077d8383836001610983565b505050565b5f61078d84846105e7565b90507fffffffffffffffffffffffffffffffffffffffffffffffffffffffffffffffff811461080e57818110156107ff578281836040517ffb8f41b20000000000000000000000000000000000000000000000000000000081526004016107f6939291906110de565b60405180910390fd5b61080d84848484035f610983565b5b50505050565b5f73ffffffffffffffffffffffffffffffffffffffff168373ffffffffffffffffffffffffffffffffffffffff1603610884575f6040517f96c6fd1e00000000000000000000000000000000000000000000000000000000815260040161087b9190611113565b60405180910390fd5b5f73ffffffffffffffffffffffffffffffffffffffff168273ffffffffffffffffffffffffffffffffffffffff16036108f4575f6040517fec442f050000000000000000000000000000000000000000000000000000000081526004016108eb9190611113565b60405180910390fd5b6108ff838383610b52565b505050565b5f73ffffffffffffffffffffffffffffffffffffffff168273ffffffffffffffffffffffffffffffffffffffff1603610974575f6040517fec442f0500000000000000000000000000000000000000000000000000000000815260040161096b9190611113565b60405180910390fd5b61097f5f8383610b52565b5050565b5f73ffffffffffffffffffffffffffffffffffffffff168473ffffffffffffffffffffffffffffffffffffffff16036109f3575f6040517fe602df050000000000000000000000000000000000000000000000000000000081526004016109ea9190611113565b60405180910390fd5b5f73ffffffffffffffffffffffffffffffffffffffff168373ffffffffffffffffffffffffffffffffffffffff1603610a63575f6040517f94280d62000000000000000000000000000000000000000000000000000000008152600401610a5a9190611113565b60405180910390fd5b8160015f8673ffffffffffffffffffffffffffffffffffffffff1673ffffffffffffffffffffffffffffffffffffffff1681526020019081526020015f205f8573ffffffffffffffffffffffffffffffffffffffff1673ffffffffffffffffffffffffffffffffffffffff1681526020019081526020015f20819055508015610b4c578273ffffffffffffffffffffffffffffffffffffffff168473ffffffffffffffffffffffffffffffffffffffff167f8c5be1e5ebec7d5bd14f71427d1e84f3dd0314c0f7b2291e5b200ac8c7c3b92584604051610b439190610f37565b60405180910390a35b50505050565b5f73ffffffffffffffffffffffffffffffffffffffff168373ffffffffffffffffffffffffffffffffffffffff1603610ba2578060025f828254610b96919061112c565b92505081905550610c70565b5f5f5f8573ffffffffffffffffffffffffffffffffffffffff1673ffffffffffffffffffffffffffffffffffffffff1681526020019081526020015f2054905081811015610c2b578381836040517fe450d38c000000000000000000000000000000000000000000000000000000008152600401610c22939291906110de565b60405180910390fd5b8181035f5f8673ffffffffffffffffffffffffffffffffffffffff1673ffffffffffffffffffffffffffffffffffffffff1681526020019081526020015f2081905550505b5f73ffffffffffffffffffffffffffffffffffffffff168273ffffffffffffffffffffffffffffffffffffffff1603610cb7578060025f8282540392505081905550610d01565b805f5f8473ffffffffffffffffffffffffffffffffffffffff1673ffffffffffffffffffffffffffffffffffffffff1681526020019081526020015f205f82825401925050819055505b8173ffffffffffffffffffffffffffffffffffffffff168373ffffffffffffffffffffffffffffffffffffffff167fddf252ad1be2c89b69c2b068fc378daa952ba7f163c4a11628f55a4df523b3ef83604051610d5e9190610f37565b60405180910390a3505050565b5f5ffd5b5f73ffffffffffffffffffffffffffffffffffffffff82169050919050565b5f610d9882610d6f565b9050919050565b610da881610d8e565b8114610db2575f5ffd5b50565b5f81359050610dc381610d9f565b92915050565b5f60208284031215610dde57610ddd610d6b565b5b5f610deb84828501610db5565b91505092915050565b5f8115159050919050565b610e0881610df4565b82525050565b5f602082019050610e215f830184610dff565b92915050565b5f81519050919050565b5f82825260208201905092915050565b8281835e5f83830152505050565b5f601f19601f8301169050919050565b5f610e6982610e27565b610e738185610e31565b9350610e83818560208601610e41565b610e8c81610e4f565b840191505092915050565b5f6020820190508181035f830152610eaf8184610e5f565b905092915050565b5f819050919050565b610ec981610eb7565b8114610ed3575f5ffd5b50565b5f81359050610ee481610ec0565b92915050565b5f5f60408385031215610f0057610eff610d6b565b5b5f610f0d85828601610db5565b9250506020610f1e85828601610ed6565b9150509250929050565b610f3181610eb7565b82525050565b5f602082019050610f4a5f830184610f28565b92915050565b5f5f5f60608486031215610f6757610f66610d6b565b5b5f610f7486828701610db5565b9350506020610f8586828701610db5565b9250506040610f9686828701610ed6565b9150509250925092565b5f60ff82169050919050565b610fb581610fa0565b82525050565b5f602082019050610fce5f830184610fac565b92915050565b5f5f60408385031215610fea57610fe9610d6b565b5b5f610ff785828601610db5565b925050602061100885828601610db5565b9150509250929050565b7f4e487b71000000000000000000000000000000000000000000000000000000005f52602260045260245ffd5b5f600282049050600182168061105657607f821691505b60208210810361106957611068611012565b5b50919050565b7f4e487b71000000000000000000000000000000000000000000000000000000005f52601160045260245ffd5b5f6110a682610eb7565b91506110b183610eb7565b92508282039050818111156110c9576110c861106f565b5b92915050565b6110d881610d8e565b82525050565b5f6060820190506110f15f8301866110cf565b6110fe6020830185610f28565b61110b6040830184610f28565b949350505050565b5f6020820190506111265f8301846110cf565b92915050565b5f61113682610eb7565b915061114183610eb7565b92508282019050808211156111595761115861106f565b5b9291505056fea26469706673582212208ac7c0027435e987086481e323754cce18f34d93e7156cae31ee8b018da1149b64736f6c634300081e0033","linkReferences":{}},"methodIdentifiers":{"FAUCET_AMOUNT()":"76697640","FAUCET_COOLDOWN()":"7d1d5d19","allowance(address,address)":"dd62ed3e","approve(address,uint256)":"095ea7b3","balanceOf(address)":"70a08231","canClaimFaucet(address)":"01d8a296","decimals()":"313ce567","faucet()":"de5f72fd","lastFaucetClaim(address)":"8a877205","name()":"06fdde03","symbol()":"95d89b41","timeUntilNextClaim(address)":"92d82dbe","totalSupply()":"18160ddd","transfer(address,uint256)":"a9059cbb","transferFrom(address,address,uint256)":"23b872dd"},"id":3}